:100000000C9434000C9446000C9446000C9446006A
:100010000C9446000C9446000C9446000C94460048
:100020000C9446000C9446000C9446000C94460038
:100030000C9446000C9446000C9446000C94460028
:100040000C9448000C9446000C9446000C94460016
:100050000C9446000C9446000C9446000C94460008
:100060000C9446000C94460011241FBECFEFD8E03C
:10007000DEBFCDBF21E0A0E0B1E001C01D92A930FC
:10008000B207E1F70E9492000C9433080C94000030
:100090001F920F920FB60F9211242F933F938F93BD
:1000A0009F93AF93BF938091050190910601A0911A
:1000B0000701B09108013091040123E0230F2D378F
:1000C00020F40196A11DB11D05C026E8230F02965C
:1000D000A11DB11D20930401809305019093060199
:1000E000A0930701B0930801809100019091010154
:1000F000A0910201B09103010196A11DB11D809351
:10010000000190930101A0930201B0930301BF91FC
:10011000AF919F918F913F912F910F900FBE0F90B4
:100120001F901895789484B5826084BD84B58160F1
:1001300084BD85B5826085BD85B5816085BD8091B2
:100140006E00816080936E0010928100809181002A
:100150008260809381008091810081608093810022
:10016000809180008160809380008091B1008460E4
:100170008093B1008091B00081608093B000809145
:100180007A00846080937A0080917A008260809304
:100190007A0080917A00816080937A0080917A0061
:1001A000806880937A001092C1008FEF8AB98FE047
:1001B00087B914B818B888B9F894CFEFD3E40CE431
:1001C000E3E5FE2EFCE5EF2EACE6DA2EB0E9CB2E11
:1001D00010EC43E25CE2E3E3FCE383E6A82E93E762
:1001E000892E20E8722E80EA98EA20EB38EBA8EC02
:1001F000B0ED68ED962E70EEB72E60E070E0F894EA
:10020000C8B94BB91BB85BB91BB8EBB91BB8FBB984
:100210001BB8DBB91BB80BB91BB8FBB81BB8EBB8E4
:100220001BB8ABB81BB8DBB81BB88BB81BB87BB816
:100230001BB8CBB81BB88BB91BB89BB91BB82BB973
:100240001BB83BB91BB81BB91BB8ABB91BB8BBB9C2
:100250001BB89BB81BB8BBB81BB8CBB9BBB8CBB9E4
:100260009BB8CBB9BBB9CBB9ABB9CBB91BB9CBB97F
:100270003BB9CBB92BB9CBB99BB9CBB98BB9CBB9FE
:10028000CBB8CBB97BB8CBB98BB8CBB9DBB8CBB9D2
:10029000ABB8CBB9EBB8CBB9FBB8CBB90BB9CBB9D1
:1002A000DBB9CBB9FBB9CBB9EBB9CBB95BB9CBB93E
:1002B0004BB9CBB91BB81BB84BB94BB91BB81BB862
:1002C0005BB95BB91BB81BB8EBB9EBB91BB81BB872
:1002D000FBB9FBB91BB81BB8DBB9DBB91BB81BB842
:1002E0000BB90BB91BB81BB8FBB8FBB81BB81BB8D4
:1002F000EBB8EBB81BB81BB8ABB8ABB81BB81BB8A6
:10030000DBB8DBB81BB81BB88BB88BB81BB81BB8F5
:100310007BB87BB81BB81BB8CBB8CBB81BB81BB825
:100320008BB98BB91BB81BB89BB99BB91BB81BB851
:100330002BB92BB91BB81BB83BB93BB91BB81BB8C1
:100340001BB91BB91BB81BB8ABB9ABB91BB81BB8F1
:10035000BBB9BBB91BB81BB89BB89BB81BB81BB8C3
:10036000BBB8BBB81BB81BB8CBB9CBB9BBB8BBB813
:10037000CBB9CBB99BB89BB8CBB9CBB9BBB9BBB9DF
:10038000CBB9CBB9ABB9ABB9CBB9CBB91BB91BB9ED
:10039000CBB9CBB93BB93BB9CBB9CBB92BB92BB99D
:1003A000CBB9CBB99BB99BB9CBB9CBB98BB98BB90D
:1003B000CBB9CBB9CBB8CBB8CBB9CBB97BB87BB8C1
:1003C000CBB9CBB98BB88BB8CBB9CBB9DBB8DBB871
:1003D000CBB9CBB9ABB8ABB8CBB9CBB9EBB8EBB801
:1003E000CBB9CBB9FBB8FBB8CBB9CBB90BB90BB90F
:1003F000CBB9CBB9DBB9DBB9CBB9CBB9FBB9FBB95D
:10040000CBB9CBB9EBB9EBB9CBB9CBB95BB95BB96C
:10041000CBB9CBB94BB94BB9CBB9CBB9DBB9DBB99C
:100420001BB91BB90BB90BB91BB91BB9FBB8FBB88E
:100430001BB91BB9EBB8EBB81BB91BB9ABB8ABB860
:100440001BB91BB9DBB8DBB81BB91BB98BB88BB8B0
:100450001BB91BB98BB87BB81BB91BB9CBB8CBB8D0
:100460001BB91BB98BB98BB91BB91BB99BB99BB90C
:100470001BB91BB92BB92BB91BB91BB93BB93BB97C
:10048000DBB9DBB92BB92BB9DBB9DBB99BB99BB9AC
:10049000DBB9DBB98BB98BB9DBB9DBB9CBB8CBB87E
:1004A000DBB9DBB97BB87BB8DBB9DBB98BB88BB810
:1004B000DBB9DBB9DBB8DBB8DBB9DBB9ABB8ABB800
:1004C000DBB9DBB9EBB8EBB8DBB9DBB9FBB8FBB830
:1004D000DBB9DBB90BB90BB9DBB9DBB91BB81BB89E
:1004E000CBB91BB8CBB91BB8CBB91BB8CBB91BB8B0
:1004F000CBB91BB8CBB91BB8CBB91BB8CBB94BB96F
:10050000BBB84BB9BBB84BB9BBB84BB9BBB84BB90F
:10051000BBB84BB9BBB84BB9BBB84BB9BBB85BB9EF
:100520009BB85BB99BB85BB99BB85BB99BB85BB92F
:100530009BB85BB99BB85BB99BB85BB99BB8EBB98F
:10054000BBB9EBB9BBB9EBB9BBB9EBB9BBB9EBB94B
:10055000BBB9EBB9BBB9EBB9BBB9EBB9BBB9FBB92B
:10056000ABB9FBB9ABB9FBB9ABB9FBB9ABB9FBB92B
:10057000ABB9FBB9ABB9FBB9ABB9FBB9ABB9DBB93B
:100580001BB9DBB91BB9DBB91BB9DBB91BB9DBB9CB
:100590001BB9DBB91BB9DBB91BB9DBB91BB90BB98B
:1005A0003BB90BB93BB90BB93BB90BB93BB90BB96B
:1005B0003BB90BB93BB90BB93BB90BB93BB9FBB86C
:1005C0002BB9FBB82BB9FBB82BB9FBB82BB9FBB8CF
:1005D0002BB9FBB82BB9FBB82BB9FBB82BB9EBB8CF
:1005E0009BB9EBB89BB9EBB89BB9EBB89BB9EBB82F
:1005F0009BB9EBB89BB9EBB89BB9EBB89BB9ABB85F
:100600008BB9ABB88BB9ABB88BB9ABB88BB9ABB84E
:100610008BB9ABB88BB9ABB88BB9ABB88BB9DBB80E
:10062000CBB8DBB8CBB8DBB8CBB8DBB8CBB8DBB872
:10063000CBB8DBB8CBB8DBB8CBB8DBB8CBB88BB8B2
:100640008BB88BB88BB88BB88BB88BB88BB88BB892
:100650008BB88BB88BB88BB88BB88BB88BB8CBB842
:10066000DBB8CBB8DBB8CBB8DBB8CBB8DBB8CBB832
:10067000DBB8CBB8DBB8CBB8DBB8CBB8DBB88BB961
:10068000ABB88BB9ABB88BB9ABB88BB9ABB88BB9CE
:10069000ABB88BB9ABB88BB9ABB88BB9ABB89BB9AE
:1006A000EBB89BB9EBB89BB9EBB89BB9EBB89BB96E
:1006B000EBB89BB9EBB89BB9EBB89BB9EBB82BB9CE
:1006C000FBB82BB9FBB82BB9FBB82BB9FBB82BB9CE
:1006D000FBB82BB9FBB82BB9FBB82BB9FBB83BB9AE
:1006E0000BB93BB90BB93BB90BB93BB90BB93BB92A
:1006F0000BB93BB90BB93BB90BB93BB90BB91BB93A
:10070000DBB91BB9DBB91BB9DBB91BB9DBB91BB949
:10071000DBB91BB9DBB91BB9DBB91BB9DBB9ABB9A9
:10072000FBB9ABB9FBB9ABB9FBB9ABB9FBB9ABB969
:10073000FBB9ABB9FBB9ABB9FBB9ABB9FBB9BBB949
:10074000EBB9BBB9EBB9BBB9EBB9BBB9EBB9BBB949
:10075000EBB9BBB9EBB9BBB9EBB9BBB9EBB99BB85A
:100760005BB99BB85BB99BB85BB99BB85BB99BB8ED
:100770005BB99BB85BB99BB85BB99BB85BB9BBB8BD
:100780004BB9BBB84BB9BBB84BB9BBB84BB9BBB88D
:100790004BB9BBB84BB9BBB84BB9BBB84BB9CBB96C
:1007A0001BB8CBB91BB8CBB91BB8CBB91BB8CBB9ED
:1007B0001BB8CBB91BB8CBB91BB8CBB91BB81BB88E
:1007C0001BB81BB8CBB9CBB91BB81BB8CBB9CBB9CD
:1007D0001BB81BB8CBB9CBB91BB81BB8CBB9CBB9BD
:1007E0004BB94BB9BBB8BBB84BB94BB9BBB8BBB82D
:1007F0004BB94BB9BBB8BBB84BB94BB9BBB8BBB81D
:100800005BB95BB99BB89BB85BB95BB99BB89BB84C
:100810005BB95BB99BB89BB85BB95BB99BB89BB83C
:10082000EBB9EBB9BBB9BBB9EBB9EBB9BBB9BBB968
:10083000EBB9EBB9BBB9BBB9EBB9EBB9BBB9BBB958
:10084000FBB9FBB9ABB9ABB9FBB9FBB9ABB9ABB948
:10085000FBB9FBB9ABB9ABB9FBB9FBB9ABB9ABB938
:10086000DBB9DBB91BB91BB9DBB9DBB91BB91BB9E8
:10087000DBB9DBB91BB91BB9DBB9DBB91BB91BB9D8
:100880000BB90BB93BB93BB90BB90BB93BB93BB988
:100890000BB90BB93BB93BB90BB90BB93BB93BB978
:1008A000FBB8FBB82BB92BB9FBB8FBB82BB92BB9EC
:1008B000FBB8FBB82BB92BB9FBB8FBB82BB92BB9DC
:1008C000EBB8EBB89BB99BB9EBB8EBB89BB99BB94C
:1008D000EBB8EBB89BB99BB9EBB8EBB89BB99BB93C
:1008E000ABB8ABB88BB98BB9ABB8ABB88BB98BB96C
:1008F000ABB8ABB88BB98BB9ABB8ABB88BB98BB95C
:10090000DBB8DBB8CBB8CBB8DBB8DBB8CBB8CBB88F
:10091000DBB8DBB8CBB8CBB8DBB8DBB8CBB8CBB87F
:100920008BB88BB88BB88BB88BB88BB88BB88BB8AF
:100930008BB88BB88BB88BB88BB88BB88BB88BB89F
:10094000CBB8CBB8DBB8DBB8CBB8CBB8DBB8DBB84F
:10095000CBB8CBB8DBB8DBB8CBB8CBB8DBB8DBB83F
:100960008BB98BB9ABB8ABB88BB98BB9ABB8ABB8EB
:100970008BB98BB9ABB8ABB88BB98BB9ABB8ABB8DB
:100980009BB99BB9EBB8EBB89BB99BB9EBB8EBB88B
:100990009BB99BB9EBB8EBB89BB99BB9EBB8EBB87B
:1009A0002BB92BB9FBB8FBB82BB92BB9FBB8FBB8EB
:1009B0002BB92BB9FBB8FBB82BB92BB9FBB8FBB8DB
:1009C0003BB93BB90BB90BB93BB93BB90BB90BB947
:1009D0003BB93BB90BB90BB93BB93BB90BB90BB937
:1009E0001BB91BB9DBB9DBB91BB91BB9DBB9DBB967
:1009F0001BB91BB9DBB9DBB91BB91BB9DBB9DBB957
:100A0000ABB9ABB9FBB9FBB9ABB9ABB9FBB9FBB986
:100A1000ABB9ABB9FBB9FBB9ABB9ABB9FBB9FBB976
:100A2000BBB9BBB9EBB9EBB9BBB9BBB9EBB9EBB966
:100A3000BBB9BBB9EBB9EBB9BBB9BBB9EBB9EBB956
:100A40009BB89BB85BB95BB99BB89BB85BB95BB90A
:100A50009BB89BB85BB95BB99BB89BB85BB95BB9FA
:100A6000BBB8BBB84BB94BB9BBB8BBB84BB94BB9AA
:100A7000BBB8BBB84BB94BB9BBB8BBB84BB94BB99A
:100A8000CBB9CBB91BB81BB8CBB9CBB91BB81BB80A
:100A9000CBB9CBB91BB81BB8CBB9CBB91BB81BB8FA
:100AA0001BB81BB87BB81BB87BB81BB87BB81BB88E
:100AB0007BB81BB87BB81BB87BB81BB87BB81BB81E
:100AC0007BB84BB9CBB84BB9CBB84BB9CBB84BB95A
:100AD000CBB84BB9CBB84BB9CBB84BB9CBB84BB9FA
:100AE000CBB85BB98BB95BB98BB95BB98BB95BB967
:100AF0008BB95BB98BB95BB98BB95BB98BB95BB996
:100B00008BB9EBB99BB9EBB99BB9EBB99BB9EBB915
:100B10009BB9EBB99BB9EBB99BB9EBB99BB9EBB9F5
:100B20009BB9FBB92BB9FBB92BB9FBB92BB9FBB9F5
:100B30002BB9FBB92BB9FBB92BB9FBB92BB9FBB955
:100B40002BB9DBB93BB9DBB93BB9DBB93BB9DBB995
:100B50003BB9DBB93BB9DBB93BB9DBB93BB9DBB975
:100B60003BB90BB91BB90BB91BB90BB91BB90BB905
:100B70001BB90BB91BB90BB91BB90BB91BB90BB915
:100B80001BB9FBB8ABB9FBB8ABB9FBB8ABB9FBB899
:100B9000ABB9FBB8ABB9FBB8ABB9FBB8ABB9FBB8F9
:100BA000ABB9EBB8BBB9EBB8BBB9EBB8BBB9EBB8F9
:100BB000BBB9EBB8BBB9EBB8BBB9EBB8BBB9EBB8D9
:100BC000BBB9ABB89BB8ABB89BB8ABB89BB8ABB82C
:100BD0009BB8ABB89BB8ABB89BB8ABB89BB8ABB83D
:100BE0009BB8DBB8BBB8DBB8BBB8DBB8BBB8DBB80D
:100BF000BBB8DBB8BBB8DBB8BBB8DBB8BBB8DBB8DD
:100C0000BBB88BB8CBB98BB8CBB98BB8CBB98BB8D9
:100C1000CBB98BB8CBB98BB8CBB98BB8CBB98BB8B8
:100C2000CBB9DBB8BBB8DBB8BBB8DBB8BBB8DBB89B
:100C3000BBB8DBB8BBB8DBB8BBB8DBB8BBB8DBB89C
:100C4000BBB8ABB89BB8ABB89BB8ABB89BB8ABB8AC
:100C50009BB8ABB89BB8ABB89BB8ABB89BB8ABB8BC
:100C60009BB8EBB8BBB9EBB8BBB9EBB8BBB9EBB849
:100C7000BBB9EBB8BBB9EBB8BBB9EBB8BBB9EBB818
:100C8000BBB9FBB8ABB9FBB8ABB9FBB8ABB9FBB8F8
:100C9000ABB9FBB8ABB9FBB8ABB9FBB8ABB9FBB8F8
:100CA000ABB90BB91BB90BB91BB90BB91BB90BB954
:100CB0001BB90BB91BB90BB91BB90BB91BB90BB9D4
:100CC0001BB9DBB93BB9DBB93BB9DBB93BB9DBB924
:100CD0003BB9DBB93BB9DBB93BB9DBB93BB9DBB9F4
:100CE0003BB9FBB92BB9FBB92BB9FBB92BB9FBB994
:100CF0002BB9FBB92BB9FBB92BB9FBB92BB9FBB994
:100D00002BB9EBB99BB9EBB99BB9EBB99BB9EBB973
:100D10009BB9EBB99BB9EBB99BB9EBB99BB9EBB9F3
:100D20009BB95BB98BB95BB98BB95BB98BB95BB953
:100D30008BB95BB98BB95BB98BB95BB98BB95BB953
:100D40008BB94BB9CBB84BB9CBB84BB9CBB84BB9C6
:100D5000CBB84BB9CBB84BB9CBB84BB9CBB84BB977
:100D6000CBB81BB87BB81BB87BB81BB87BB81BB81B
:100D70007BB81BB87BB81BB87BB81BB87BB81BB85B
:100D80007BB81BB81BB81BB87BB87BB81BB81BB8AB
:100D90007BB87BB81BB81BB87BB87BB81BB81BB83B
:100DA0007BB87BB84BB94BB9CBB8CBB84BB94BB9C7
:100DB000CBB8CBB84BB94BB9CBB8CBB84BB94BB917
:100DC000CBB8CBB85BB95BB98BB98BB95BB95BB945
:100DD0008BB98BB95BB95BB98BB98BB95BB95BB9B3
:100DE0008BB98BB9EBB9EBB99BB99BB9EBB9EBB943
:100DF0009BB99BB9EBB9EBB99BB99BB9EBB9EBB913
:100E00009BB99BB9FBB9FBB92BB92BB9FBB9FBB9A2
:100E10002BB92BB9FBB9FBB92BB92BB9FBB9FBB972
:100E20002BB92BB9DBB9DBB93BB93BB9DBB9DBB9C2
:100E30003BB93BB9DBB9DBB93BB93BB9DBB9DBB992
:100E40003BB93BB90BB90BB91BB91BB90BB90BB902
:100E50001BB91BB90BB90BB91BB91BB90BB90BB932
:100E60001BB91BB9FBB8FBB8ABB9ABB9FBB8FBB846
:100E7000ABB9ABB9FBB8FBB8ABB9ABB9FBB8FBB816
:100E8000ABB9ABB9EBB8EBB8BBB9BBB9EBB8EBB826
:100E9000BBB9BBB9EBB8EBB8BBB9BBB9EBB8EBB8F6
:100EA000BBB9BBB9DBB8DBB8BBB8BBB8DBB8DBB828
:100EB000BBB8BBB8DBB8DBB8BBB8BBB8DBB8DBB81A
:100EC000BBB8BBB88BB88BB8CBB9CBB98BB88BB828
:100ED000CBB9CBB98BB88BB8CBB9CBB98BB88BB8F6
:100EE000CBB9CBB9DBB8DBB8BBB8BBB8DBB8DBB8C8
:100EF000BBB8BBB8DBB8DBB8BBB8BBB8DBB8DBB8DA
:100F0000BBB8BBB8ABB8ABB89BB89BB8ABB8ABB8C9
:100F10009BB89BB8ABB8ABB89BB89BB8ABB8ABB8F9
:100F20009BB89BB8EBB8EBB8BBB9BBB9EBB8EBB8A7
:100F3000BBB9BBB9EBB8EBB8BBB9BBB9EBB8EBB855
:100F4000BBB9BBB9FBB8FBB8ABB9ABB9FBB8FBB825
:100F5000ABB9ABB9FBB8FBB8ABB9ABB9FBB8FBB835
:100F6000ABB9ABB90BB90BB91BB91BB90BB90BB901
:100F70001BB91BB90BB90BB91BB91BB90BB90BB911
:100F80001BB91BB9DBB9DBB93BB93BB9DBB9DBB981
:100F90003BB93BB9DBB9DBB93BB93BB9DBB9DBB931
:100FA0003BB93BB9FBB9FBB92BB92BB9FBB9FBB9C1
:100FB0002BB92BB9FBB9FBB92BB92BB9FBB9FBB9D1
:100FC0002BB92BB9EBB9EBB99BB99BB9EBB9EBB921
:100FD0009BB99BB9EBB9EBB99BB99BB9EBB9EBB931
:100FE0009BB99BB95BB95BB98BB98BB95BB95BB981
:100FF0008BB98BB95BB95BB98BB98BB95BB95BB991
:101000008BB98BB94BB94BB9CBB8CBB84BB94BB942
:10101000CBB8CBB84BB94BB9CBB8CBB84BB94BB9B4
:10102000CBB8CBB81BB81BB87BB87BB81BB81BB808
:101030007BB87BB81BB81BB87BB87BB81BB81BB898
:101040007BB87BB818B87BB818B818B818B818B8F7
:1010500018B818B818B818B86115710509F4CFC8D0
:0A1060000E940000B6C8F894FFCF0C
:00000001FF
