:100000000C94EB000C94FD000C94FD000C94FD008E
:100010000C94FD000C94FD000C94FD000C94FD006C
:100020000C94FD000C94FD000C94FD000C94FD005C
:100030000C94FD000C94FD000C94FD000C94FD004C
:100040000C94FF000C94FD000C94FD000C94FD003A
:100050000C94FD000C94FD000C94FD000C94FD002C
:100060000C94FD000C94FD001111111111111111CE
:100070001111111111111111111111111111111170
:100080001111111111111111111111111111111160
:100090001111111111111111111111111111111150
:1000A0001111111111111111111111111111111140
:1000B0001111111111111111111111111111111130
:1000C0001111111111111111111111111111111120
:1000D0001111111111111111111111111111111110
:1000E0001111111111111111111111111111111100
:1000F00011111111111111111111111111111111F0
:1001000011111111111111111111111111111111DF
:1001100011111111111111111111111111111111CF
:1001200011111111111111111111111111111111BF
:1001300011111111111111111111111111111111AF
:10014000111111111111111111111111111111119F
:1001500011111111111111111111111111111100A0
:10016000000000000000000000000000000000008F
:10017000000000000000000000000000000000007F
:10018000000000000000000000000000000000006F
:10019000000000000000000000000000000000005F
:1001A000000000000000000000000000000000004F
:1001B000000000000000000000000000000000003F
:1001C000000000000000000000000000000000002F
:1001D00000000000000011241FBECFEFD8E0DEBFFA
:1001E000CDBF21E0A0E0B1E001C01D92A930B2076F
:1001F000E1F70E9449010C94EE040C9400001F9258
:100200000F920FB60F9211242F933F938F939F93CA
:10021000AF93BF938091050190910601A0910701D2
:10022000B09108013091040123E0230F2D3720F411
:100230000196A11DB11D05C026E8230F0296A11D40
:10024000B11D209304018093050190930601A093B2
:100250000701B09308018091000190910101A091E4
:100260000201B09103010196A11DB11D809300010F
:1002700090930101A0930201B0930301BF91AF914C
:100280009F918F913F912F910F900FBE0F901F90D4
:100290001895789484B5826084BD84B5816084BDEE
:1002A00085B5826085BD85B5816085BD80916E0014
:1002B000816080936E001092810080918100826045
:1002C0008093810080918100816080938100809182
:1002D00080008160809380008091B1008460809371
:1002E000B1008091B00081608093B00080917A006D
:1002F000846080937A0080917A00826080937A0093
:1003000080917A00816080937A0080917A00806881
:1003100080937A001092C10087E084B980E187B9A8
:100320009FEF9AB915B888B91BB815B82FE531E019
:1003300086ED91E0F90141E0E63DF40721F04491BA
:1003400045B93196F8CF15B8EFE5F1E08E179F0764
:1003500021F0449145B93196F9CF15B8EFE5F1E0B8
:100360008E179F0721F0449145B93196F9CF15B802
:10037000EFE5F1E08E179F0721F0449145B93196E2
:10038000F9CF15B8EFE5F1E08E179F0721F0449102
:1003900045B93196F9CF15B8EFE5F1E08E179F0713
:1003A00021F0449145B93196F9CF15B8EFE5F1E068
:1003B0008E179F0721F0449145B93196F9CF15B8B2
:1003C000EFE5F1E08E179F0721F0449145B9319692
:1003D000F9CF15B8EFE5F1E08E179F0721F04491B2
:1003E00045B93196F9CF15B88217930731F0F90165
:1003F000449145B92F5F3F4FF7CF87E085B985B965
:1004000028E630E08FE591E0F90141E0EF35F407AF
:1004100021F0449145B93196F8CF47E045B9E8E677
:10042000F0E08E179F0721F0449145B93196F9CF3E
:1004300047E045B9E8E6F0E08E179F0721F04491C8
:1004400045B93196F9CF47E045B9E8E6F0E08E17B7
:100450009F0721F0449145B93196F9CF47E045B95E
:10046000E8E6F0E08E179F0721F0449145B93196F8
:10047000F9CF47E045B9E8E6F0E08E179F0721F095
:10048000449145B93196F9CF47E045B9E8E6F0E047
:100490008E179F0721F0449145B93196F9CF47E077
:1004A00045B9E8E6F0E08E179F0721F0449145B981
:1004B0003196F9CF47E045B9E8E6F0E08E179F079F
:1004C00021F0449145B93196F9CF47E045B9E8E6C6
:1004D000F0E08E179F0721F0449145B93196F9CF8E
:1004E00047E045B9E8E6F0E08E179F0721F0449118
:1004F00045B93196F9CF47E045B9E8E6F0E08E1707
:100500009F0721F0449145B93196F9CF47E045B9AD
:10051000E8E6F0E08E179F0721F0449145B9319647
:10052000F9CF47E045B9E8E6F0E08E179F0721F0E4
:10053000449145B93196F9CF47E045B9E8E6F0E096
:100540008E179F0721F0449145B93196F9CF47E0C6
:1005500045B9E8E6F0E08E179F0721F0449145B9D0
:100560003196F9CF47E045B9E8E6F0E08E179F07EE
:1005700021F0449145B93196F9CF47E045B9E8E615
:10058000F0E08E179F0721F0449145B93196F9CFDD
:1005900047E045B9E8E6F0E08E179F0721F0449167
:1005A00045B93196F9CF47E045B9E8E6F0E08E1756
:1005B0009F0721F0449145B93196F9CF47E045B9FD
:1005C000E8E6F0E08E179F0721F0449145B9319697
:1005D000F9CF47E045B9E8E6F0E08E179F0721F034
:1005E000449145B93196F9CF47E045B9E8E6F0E0E6
:1005F0008E179F0721F0449145B93196F9CF47E016
:1006000045B9E8E6F0E08E179F0721F0449145B91F
:100610003196F9CF47E045B9E8E6F0E08E179F073D
:1006200021F0449145B93196F9CF47E045B9E8E664
:10063000F0E08E179F0721F0449145B93196F9CF2C
:1006400047E045B9E8E6F0E08E179F0721F04491B6
:1006500045B93196F9CF47E045B9E8E6F0E08E17A5
:100660009F0721F0449145B93196F9CF47E045B94C
:10067000E8E6F0E08E179F0721F0449145B93196E6
:10068000F9CF47E045B98217930731F0F90144915A
:1006900045B92F5F3F4FF7CF80E0C82E80E0D82EBE
:1006A000D3E49CE4F92E23E5E22E03E710ECCFEF30
:1006B000F3E2ACE2B3E38CE3B82E8CE593E62CE6F0
:1006C00070E830E940EA58EA60EBE8EB0F2EF8EC0E
:1006D000AF2EF02D0F2EF0ED9F2EF02D0F2EF8EDFA
:1006E0008F2EF02D0F2EF0EE7F2EF02DF89418B8EF
:1006F0001BB8FBB91BB8ABB91BB8BBB91BB8BBB8AF
:100700001BB8DBB91BB8FBB81BB8EBB81BB88BB96F
:100710001BB89BB91BB82BB91BB80BB91BB87BB95D
:100720001BB83BB91BB84BB91BB85BB91BB86BB94D
:100730001BB8EBB91BB81BB91BB8ABB81BB89BB83F
:100740001BB88BB81BB87BB81BB8CBB97BB8CBB97F
:100750008BB8CBB99BB8CBB9ABB8CBB91BB9CBB9BC
:10076000EBB9CBB96BB9CBB95BB9CBB94BB9CBB999
:100770003BB9CBB97BB9CBB90BB9CBB92BB9CBB999
:100780009BB9CBB98BB9CBB9EBB8CBB9FBB8CBB96B
:10079000DBB9CBB9BBB8CBB9BBB9CBB9ABB9CBB96A
:1007A000FBB9CBB91BB81BB8FBB9FBB91BB81BB85D
:1007B000ABB9ABB91BB81BB8BBB9BBB91BB81BB83D
:1007C000BBB8BBB81BB81BB8DBB9DBB91BB81BB8CF
:1007D000FBB8FBB81BB81BB8EBB8EBB81BB81BB821
:1007E0008BB98BB91BB81BB89BB99BB91BB81BB88D
:1007F0002BB92BB91BB81BB80BB90BB91BB81BB85D
:100800007BB97BB91BB81BB83BB93BB91BB81BB84C
:100810004BB94BB91BB81BB85BB95BB91BB81BB85C
:100820006BB96BB91BB81BB8EBB9EBB91BB81BB8EC
:100830001BB91BB91BB81BB8ABB8ABB81BB81BB8FE
:100840009BB89BB81BB81BB88BB88BB81BB81BB830
:100850007BB87BB81BB81BB8CBB9CBB97BB87BB81E
:10086000CBB9CBB98BB88BB8CBB9CBB99BB89BB84C
:10087000CBB9CBB9ABB8ABB8CBB9CBB91BB91BB9FA
:10088000CBB9CBB9EBB9EBB9CBB9CBB96BB96BB9C8
:10089000CBB9CBB95BB95BB9CBB9CBB94BB94BB918
:1008A000CBB9CBB93BB93BB9CBB9CBB97BB97BB9E8
:1008B000CBB9CBB90BB90BB9CBB9CBB92BB92BB9D8
:1008C000CBB9CBB99BB99BB9CBB9CBB98BB98BB9E8
:1008D000CBB9CBB9EBB8EBB8CBB9CBB9FBB8FBB85C
:1008E000CBB9CBB9DBB9DBB9CBB9CBB9BBB8BBB8EA
:1008F000CBB9CBB9BBB9BBB9CBB9CBB9ABB9ABB938
:10090000CBB9CBB9FBB9FBB9CBB9CBB9DBB9DBB947
:100910001BB91BB9FBB8FBB81BB91BB9EBB8EBB8DB
:100920001BB91BB98BB98BB91BB91BB99BB99BB947
:100930001BB91BB92BB92BB91BB91BB90BB90BB917
:100940001BB91BB90BB97BB91BB91BB93BB93BB977
:100950001BB91BB94BB94BB91BB91BB95BB95BB917
:100960001BB91BB96BB96BB91BB91BB9EBB9EBB9A7
:10097000DBB9DBB96BB96BB9DBB9DBB95BB95BB9B7
:10098000DBB9DBB94BB94BB9DBB9DBB93BB93BB927
:10099000DBB9DBB97BB97BB9DBB9DBB90BB90BB917
:1009A000DBB9DBB92BB92BB9DBB9DBB99BB99BB987
:1009B000DBB9DBB98BB98BB9DBB9DBB9EBB8EBB819
:1009C000DBB9DBB9FBB8FBB8DBB9DBB9CBB9C11418
:1009D000D10409F48BCE0E9400006ACEF894FFCFB8
:107E00001F92CDB7DEB7112484B714BE982F9D7092
:107E100009F0D7D085E08093810082E08093C00094
:107E200088E18093C10086E08093C20082E2809363
:107E3000C4008EE0B1D0259A26E080E39CEF31E0CB
:107E4000909385008093840036BBB09BFECF1D9A33
:107E5000A8952150A9F7812C912C93E0F92EEE24BE
:107E6000E39425E0D22E31E1C32E8AD0813479F417
:107E700087D0898397D08981823811F482E005C048
:107E8000813811F486E001C083E073D06FC0823482
:107E900011F484E103C0853419F485E08BD066C009
:107EA000853541F46DD0882E6BD0912C982A880CA2
:107EB000991C5BC0863521F484E07CD080E0E5CF5E
:107EC000843609F036C05CD05BD0B82E59D0A82ECD
:107ED00000E011E055D0F80181938F01BE12FACF76
:107EE00061D0F5E4AF1201C0FFCFF401F7BEE89511
:107EF00007B600FCFDCFB401A0E0B1E02C911296D2
:107F0000AD0141505109FA01808130E0382BFB016D
:107F10000901E7BEE89511246E5F7F4FBA12EECFDC
:107F2000F401D7BEE89507B600FCFDCFC7BEE895C3
:107F30001DC0843769F424D023D0B82E21D032D08C
:107F40008401F80185918F0114D0BA94D1F70EC045
:107F5000853739F427D08EE10CD085E90AD08FE03F
:107F600094CF813511F488E017D01CD080E101D086
:107F70007CCF9091C00095FFFCCF8093C600089500
:107F80008091C00087FFFCCF8091C00084FD01C0BC
:107F9000A8958091C6000895E0E6F0E098E190830E
:107FA00080830895EDDF803219F088E0F5DFFFCFA0
:107FB00084E1DFCFCF93C82FE3DFC150E9F7CF9142
:0E7FC000F1CF282E80E0E8DFE0E0FF270994F3
:027FFE00020679
:0400000300007E007B
:00000001FF
