:100000000C9434000C9446000C9446000C9446006A
:100010000C9446000C9446000C9446000C94460048
:100020000C9446000C9446000C9446000C94460038
:100030000C9446000C9446000C9446000C94460028
:100040000C9448000C9446000C9446000C94460016
:100050000C9446000C9446000C9446000C94460008
:100060000C9446000C94460011241FBECFEFD8E03C
:10007000DEBFCDBF21E0A0E0B1E001C01D92A930FC
:10008000B207E1F70E9492000C940D020C9400005C
:100090001F920F920FB60F9211242F933F938F93BD
:1000A0009F93AF93BF938091050190910601A0911A
:1000B0000701B09108013091040123E0230F2D378F
:1000C00020F40196A11DB11D05C026E8230F02965C
:1000D000A11DB11D20930401809305019093060199
:1000E000A0930701B0930801809100019091010154
:1000F000A0910201B09103010196A11DB11D809351
:10010000000190930101A0930201B0930301BF91FC
:10011000AF919F918F913F912F910F900FBE0F90B4
:100120001F901895789484B5826084BD84B58160F1
:1001300084BD85B5826085BD85B5816085BD8091B2
:100140006E00816080936E0010928100809181002A
:100150008260809381008091810081608093810022
:10016000809180008160809380008091B1008460E4
:100170008093B1008091B00081608093B000809145
:100180007A00846080937A0080917A008260809304
:100190007A0080917A00816080937A0080917A0061
:1001A000806880937A001092C1008FEF8AB984E052
:1001B00087B981E084B918B885B9F894C0E0D0E077
:1001C00011E080E018B815B98BB98BB98BB990E8FC
:1001D000980F9BB99BB99BB98BB98BB99BB99BB94C
:1001E0009BB98BB98BB98BB99BB99BB99BB98BB9AF
:1001F0008BB98BB99BB99BB99BB98BB98BB99BB99F
:100200009BB99BB98BB98BB98BB99BB99BB99BB97E
:100210008BB98BB98BB99BB99BB99BB98BB98BB98E
:100220009BB99BB99BB98BB98BB98BB99BB99BB95E
:100230009BB98BB98BB98BB99BB99BB99BB98BB95E
:100240008BB99BB99BB99BB98BB98BB98BB99BB94E
:100250009BB99BB924E0280F2BB92BB92BB994E893
:10026000980F9BB99BB99BB92BB92BB99BB99BB97B
:100270009BB92BB92BB92BB99BB99BB99BB92BB99E
:100280002BB92BB99BB99BB99BB92BB92BB99BB98E
:100290009BB99BB92BB92BB92BB99BB99BB99BB90E
:1002A0002BB92BB92BB99BB99BB99BB92BB92BB9DE
:1002B0009BB99BB99BB92BB92BB92BB99BB99BB9EE
:1002C0009BB92BB92BB92BB99BB99BB99BB92BB94E
:1002D0002BB99BB99BB99BB92BB92BB92BB99BB93E
:1002E0009BB99BB928E0280F2BB92BB92BB998E8FB
:1002F000980F9BB99BB99BB92BB92BB99BB99BB9EB
:100300009BB92BB92BB92BB99BB99BB99BB92BB90D
:100310002BB92BB99BB99BB99BB92BB92BB99BB9FD
:100320009BB99BB92BB92BB92BB99BB99BB99BB97D
:100330002BB92BB92BB99BB99BB99BB92BB92BB94D
:100340009BB99BB99BB92BB92BB92BB99BB99BB95D
:100350009BB92BB92BB92BB99BB99BB99BB92BB9BD
:100360002BB99BB99BB99BB92BB92BB92BB99BB9AD
:100370009BB99BB92CE0280F2BB92BB92BB99CE862
:10038000980F9BB99BB99BB92BB92BB99BB99BB95A
:100390009BB92BB92BB92BB99BB99BB99BB92BB97D
:1003A0002BB92BB99BB99BB99BB92BB92BB99BB96D
:1003B0009BB99BB92BB92BB92BB99BB99BB99BB9ED
:1003C0002BB92BB92BB99BB99BB99BB92BB92BB9BD
:1003D0009BB99BB99BB92BB92BB92BB99BB99BB9CD
:1003E0009BB92BB92BB92BB99BB99BB99BB92BB92D
:1003F0002BB99BB99BB99BB92BB92BB92BB99BB91D
:100400009BB99BB92BB9805F803809F0DBCE209770
:0E04100009F4D7CE0E940000D4CEF894FFCF9E
:00000001FF
