:100000000C9434000C9446000C9446000C9446006A
:100010000C9446000C9446000C9446000C94460048
:100020000C9446000C9446000C9446000C94460038
:100030000C9446000C9446000C9446000C94460028
:100040000C9448000C9446000C9446000C94460016
:100050000C9446000C9446000C9446000C94460008
:100060000C9446000C94460011241FBECFEFD8E03C
:10007000DEBFCDBF21E0A0E0B1E001C01D92A930FC
:10008000B207E1F70E9492000C9489020C940000E0
:100090001F920F920FB60F9211242F933F938F93BD
:1000A0009F93AF93BF938091050190910601A0911A
:1000B0000701B09108013091040123E0230F2D378F
:1000C00020F40196A11DB11D05C026E8230F02965C
:1000D000A11DB11D20930401809305019093060199
:1000E000A0930701B0930801809100019091010154
:1000F000A0910201B09103010196A11DB11D809351
:10010000000190930101A0930201B0930301BF91FC
:10011000AF919F918F913F912F910F900FBE0F90B4
:100120001F901895789484B5826084BD84B58160F1
:1001300084BD85B5826085BD85B5816085BD8091B2
:100140006E00816080936E0010928100809181002A
:100150008260809381008091810081608093810022
:10016000809180008160809380008091B1008460E4
:100170008093B1008091B00081608093B000809145
:100180007A00846080937A0080917A008260809304
:100190007A0080917A00816080937A0080917A0061
:1001A000806880937A001092C1008FEF8AB98FE047
:1001B00087B914B818B888B9F89480E0C82E80E0E0
:1001C000D82EC0E8D3E210E90CE290EAF92E23E33E
:1001D000E22E88248A9488EA2CE390EB43E438EBFF
:1001E0006CE450ECE3E578ECACE5F0EDB3E6BB2E67
:1001F000B8ED0F2EFCE69F2EF02D0F2EF0EEAF2E59
:10020000F02D0F2EF3E77F2EF02DF89488B81BB851
:100210001BB8CBB91BB8CBB91BB8CBB91BB8CBB982
:100220001BB8CBB91BB8CBB91BB8CBB91BB8CBB972
:10023000DBB91BB9DBB91BB9DBB91BB9DBB91BB91E
:10024000DBB91BB9DBB91BB9DBB91BB9DBB91BB90E
:1004F00018B8CBB918B818B818B818B818B818B8C8
:1005000018B818B8C114D10409F47FCE0E940000B5
:0605100060CEF894FFCF5D
:00000001FF
