:100000000C9434000C9446000C9446000C9446006A
:100010000C9446000C9446000C9446000C94460048
:100020000C9446000C9446000C9446000C94460038
:100030000C9446000C9446000C9446000C94460028
:100040000C946D000C9446000C9446000C944600F1
:100050000C9446000C9446000C9446000C94460008
:100060000C9446000C94460011241FBECFEFD8E03C
:10007000DEBFCDBF21E0A0E0B1E001C01D92A930FC
:10008000B207E1F70E94B7000C945C150C940000D5
:100090003FB7F8948091050190910601A091070166
:1000A000B091080126B5A89B05C02F3F19F0019615
:1000B000A11DB11D3FBFBA2FA92F982F8827820FEE
:1000C000911DA11DB11DBC01CD0142E0660F771F3E
:1000D000881F991F4A95D1F708951F920F920FB666
:1000E0000F9211242F933F938F939F93AF93BF93BE
:1000F0008091010190910201A0910301B09104014E
:100100003091000123E0230F2D3720F40196A11D2B
:10011000B11D05C026E8230F0296A11DB11D209335
:1001200000018093010190930201A0930301B09319
:1001300004018091050190910601A0910701B09101
:1001400008010196A11DB11D809305019093060140
:10015000A0930701B0930801BF91AF919F918F9138
:100160003F912F910F900FBE0F901F901895CF9336
:10017000DF9300D0CDB7DEB7789484B5826084BDBC
:1001800084B5816084BD85B5826085BD85B581609B
:1001900085BD80916E00816080936E001092810019
:1001A00080918100826080938100809181008160D4
:1001B0008093810080918000816080938000809195
:1001C000B10084608093B1008091B0008160809321
:1001D000B00080917A00846080937A0080917A00E8
:1001E000826080937A0080917A00816080937A00A7
:1001F00080917A00806880937A001092C1000E94FA
:1002000048006B017C010E944800DC01CB018C1985
:100210009D09AE09BF09883E9340A105B10598F339
:100220008FEF8AB987B914B888B980E88BB948E2EA
:10023000342E50E3252E18E308E4402E88E5682E7E
:1002400090E6592E68E628EA30EB732E30EC40ED4C
:1002500018B870E87BB988EE93E018B818B818B8E9
:1002600018B818B80197C9F78FEF88B98AE090E0FD
:100270009A838983B8EB8B2E18B81BB81BB81BB8B0
:100280001BB81BB898E09BB9F0E1FBB988E1982E48
:100290009BB890E2B92EBBB83BB82BB81BB950E461
:1002A000C52ECBB84BB86BB85BB86BB970E7D72E1F
:1002B000DBB8E8E7EE2EEBB8F0E8FF2EFBB878E805
:1002C0007BB980E98BB998E99BB9F0EAFBB92BB906
:1002D0007BB88BB83BB9A8EC9A2E9BB84BB9B8ED5C
:1002E000BB2EBBB800EEC02ECBB8E8EEEBB98FEF5B
:1002F00088B990EFD92EDBB808EF0BB957E9E52E96
:10030000EBB89AEB9BB972E9F72EFBB874EB7BB9AB
:1003100095EA9BB9FDEBFBB9A7E8EA2EEBB8B9E982
:10032000BBB9FBB999E8992E9BB850EAB52EBBB87A
:100330007FEBC72ECBB8F0E8DF2EDBB8DBB8DBB83D
:10034000A1E8FA2EFBB874E87BB99FE89BB9FEEAF6
:10035000FBB992EB992E9BB85AEA5BB98BB87AE954
:10036000B72EBBB8FDEBCF2ECBB8A8E8DA2EDBB8A2
:100370009CE9F92EFBB87EEB7BB992E89BB9F9E8D2
:10038000FBB970EA972E9BB8FFEBBF2EBBB8A0E875
:10039000CA2ECBB8CBB891E8D92EDBB875E8F72ECA
:1003A000FBB874E97BB997EB9BB9FDE9FBB9BBB826
:1003B000F2E89F2E9BB8A7EDBA2EBBB89AEF9BB977
:1003C00092EDC92ECBB874EFD72EDBB8F5EEFF2E29
:1003D000FBB87DEF7BB997EC9BB999ED9BB97BB9E5
:1003E000F9ECFBB9A0EE9A2E9BB88BB93BB93BB99F
:1003F0003BB991ECB92EBBB874ECC72ECBB8FFEC6F
:10040000DF2EDBB89EEE9BB992EF9BB9AAEEFA2ED7
:10041000FBB80BB97AED7BB99DEF9BB9F8ECFBB952
:100420009CED992E9BB89EEF9BB972ECB72EBBB892
:10043000F9ECCF2ECBB8A0EEDA2EDBB88BB93BB9F6
:100440003BB971ECF72EFBB875EC7BB9F4EDFBB959
:10045000F7EF9F2E9BB87DED7BB98BB9BBB8A7E5B5
:10046000BA2EBBB87AE77BB972E5C72ECBB8F4E7F2
:10047000DF2EDBB8A5E6FA2EFBB87DE77BB9F7E403
:10048000FBB979E57BB97DE7972E9BB8F9E4BF2EE0
:10049000BBB85BB8AFE7CA2ECBB870E4D72EDBB8D9
:1004A000DBB8DBB8F1E4FF2EFBB874E47BB9FFE402
:1004B000FBB9AEE6DA2EDBB872E77BB97AE6972EA7
:1004C0009BB8F8E7BF2EBBB8AAE5CA2ECBB87DE72C
:1004D000F72EFBB84BB8FCE5AF2EABB87EE77BB987
:1004E000F2E4FBB9A9E49A2E9BB85BB87FE7B72E7C
:1004F000BBB8F0E4CF2ECBB8CBB8A1E4FA2EFBB852
:1005000075E47BB9F4E5FBB977E7972E9BB87DE5F9
:100510007BB9BBB8F2E4BF2EBBB8A7E1CA2ECBB8FB
:100520007AE3C72ECBB8F2E1FF2EFBB874E37BB9B8
:10053000F5E2FBB9ADE39A2E9BB877E0B72EBBB8D6
:10054000F9E1BF2EBBB89BB8A9E0FA2EFBB870E268
:100550007BB9FFE3FBB91BB81BB81BB8A1E0ABB973
:1005600074E0972E9BB8FFE0FF2EFBB8FEE2FBB9CC
:1005700072E37BB9FAE2FBB91BB97AE1972E9BB81B
:10058000FDE3FF2EFBB878E07BB9FCE1FBB97EE32D
:10059000972E9BB8F2E0FBB979E0F72EFBB870E23A
:1005A0007BB97FE3972E9BB81BB81BB8ABB975E03E
:1005B000F72EFBB874E17BB977E3972E9BB87DE10A
:1005C0007BB97FE3972E9BB8FBB918B81BB81BB853
:1005D0001BB81BB81BB878E07BB970E1972E9BB8AD
:1005E00078E17BB970E2972E9BB83BB82BB81BB96A
:1005F00070E47BB94BB86BB85BB86BB970E7972EFA
:100600009BB878E77BB970E8972E9BB878E87BB900
:1006100070E9972E9BB878E97BB970EA972E9BB862
:100620002BB97BB88BB83BB978EC7BB94BB978ED7B
:10063000972E9BB870EE7BB9EBB988B970EF972E07
:100640009BB80BB97CE8972E9BB874EA7BB9DBB8F2
:100650007CE9972E9BB8EBB82BB97FE5D72EDBB89A
:1006600078E7E72EEBB82BB972E67BB970E8972EE6
:100670009BB87BEAD72EDBB875E5D72EDBB8DBB8A5
:10068000DBB876E5E72EEBB87BE5972E9BB87AE6EC
:100690007BB974E9972E9BB8BBB97FE87BB971EA47
:1006A000972E9BB878E77BB92BB95BB87CE7972E80
:1006B0009BB85BB96BB872E67BB971E8972E9BB8B3
:1006C0007BEA7BB9DBB8DBB877E5972E9BB8ABB894
:1006D00070E77BB970EA972E9BB87CE77BB95BB972
:1006E00077E5972E9BB877E37BB97FE4972E9BB88D
:1006F000BBB877E4B72EBBB872E37BB973E5972E2E
:100700009BB87AE0B72EBBB873E27BB99BB87DE0AB
:10071000972E9BB87BE2B72EBBB8EBB81BB81BB8C3
:100720001BB8ABB976E07BB975E1972E9BB87FE338
:10073000B72EBBB874E47BB9CBB87CE4C72ECBB87A
:1007400073E2972E9BB873E5B72EBBB87BE0C72E3C
:10075000CBB877E2C72ECBB8DBB873E07BB97DE0CE
:10076000972E9BB87CE2B72EBBB8EBB81BB81BB872
:10077000FBB977E07BB97BE17BB97BE4972E9BB833
:10078000CBB8DBB8FBB970EEB72EBBB80BB972ECC7
:10079000C72ECBB870EF7BB97BED7BB97CEF972E82
:1007A0009BB873EB7BB97CEC7BB99BB80F2EF6EB57
:1007B000BF2EF02DBBB80F2EF4EDCF2EF02DCBB801
:1007C0008BB90F2EF9EA9F2EF02D9BB89BB89BB8E2
:1007D0005BB90F2EFFEABF2EF02DBBB80F2EFEEB3C
:1007E000CF2EF02DCBB8EBB90F2EFDEE9F2EF02DB6
:1007F0009BB80F2EF3EEBF2EF02DBBB80F2EF5EFEA
:10080000CF2EF02DCBB87BB90F2EFCEF9F2EF02D05
:100810009BB80F2EF4EBBF2EF02DBBB84BB99BB994
:100820000F2EFCEACF2EF02DCBB80F2EF6EB9F2E1D
:10083000F02D9BB80F2EF5EDCF2EF02DCBB88BB948
:100840000F2EF9EABF2EF02DBBB8BBB80F2EFBEA76
:10085000CF2EF02DCBB87BB80F2EF4EC9F2EF02DC1
:100860009BB80F2EF4EFBF2EF02DBBB84BB99BB940
:10087000CBB818B81BB81BB81BB81BB81BB868940A
:10088000CC24C3F8CBB86894992494F89BB80F2E65
:10089000F8E1BF2EF02DBBB86894CC24C5F8CBB8D6
:1008A0003BB82BB81BB96894992496F89BB84BB801
:1008B0006BB85BB86BB90F2EF0E7BF2EF02DBBB84D
:1008C0000F2EF8E7CF2EF02DCBB86894992497F827
:1008D0009BB80F2EF8E8BF2EF02DBBB80F2EF0E915
:1008E000CF2EF02DCBB80F2EF8E99F2EF02D9BB810
:1008F0000F2EF0EABF2EF02DBBB82BB97BB88BB80A
:100900003BB90F2EF8ECCF2EF02DCBB84BB90F2EF4
:10091000F8ED9F2EF02D9BB80F2EF0EEBF2EF02D90
:10092000BBB8EBB988B90F2EF0EFCF2EF02DCBB8B6
:100930000BB90F2EF2E99F2EF02D9BB80F2EF2E887
:10094000BF2EF02DBBB80F2EFAE9CF2EF02DCBB86D
:100950000F2EF7E69F2EF02D9BB80F2EFBE6BF2E35
:10096000F02DBBB80F2EF7E7CF2EF02DCBB80F2E02
:10097000F3E99F2EF02D9BB80F2EFDE7BF2EF02D33
:10098000BBB8BBB96BB90F2EFFE6CF2EF02DCBB89D
:100990000F2EF3E89F2EF02D9BB8BBB96BB9CBB8E7
:1009A0000F2EF4E8BF2EF02DBBB8BBB90F2EFBE61F
:1009B000CF2EF02DCBB80F2EF9E79F2EF02D9BB840
:1009C0000F2EF6E9BF2EF02DBBB80F2EF5E7CF2E78
:1009D000F02DCBB80F2EF1E99F2EF02D9BB80F2EE6
:1009E000F4E8BF2EF02DBBB8BBB90F2EFAE6CF2E20
:1009F000F02DCBB80F2EF5E79F2EF02D9BB80F2EC4
:100A0000F1E9BF2EF02DBBB80F2EF5E8CF2EF02D5B
:100A1000CBB80F2EF8E99F2EF02D9BB80F2EFCE6D9
:100A2000BF2EF02DBBB80F2EF5ECCF2EF02DCBB88E
:100A30000F2EF5EB9F2EF02D9BB80F2EFDECBF2E49
:100A4000F02DBBB80F2EFAE9CF2EF02DCBB80F2E1C
:100A5000FEE99F2EF02D9BB85BB90F2EF6ECBF2E52
:100A6000F02DBBB87BB87BB90F2EFBE9CF2EF02D54
:100A7000CBB80F2EF2EA9F2EF02D9BB80F2EF6EB7F
:100A8000BF2EF02DBBB87BB9CBB89BB80F2EF7EBC0
:100A9000CF2EF02DCBB87BB90F2EFEE99F2EF02D77
:100AA0009BB80F2EFCEABF2EF02DBBB80F2EF9EC31
:100AB000CF2EF02DCBB82BB90F2EF4EC9F2EF02DAE
:100AC0009BB80F2EF7EBBF2EF02DBBB87BB90F2EC6
:100AD000FDE9CF2EF02DCBB82BB99BB88BB80F2EDC
:100AE000FBEC9F2EF02D9BB80F2EFFE9BF2EF02DB3
:100AF000BBB80F2EFCE2CF2EF02DCBB80F2EFCE1B1
:100B00009F2EF02D9BB80F2EF4E3BF2EF02DBBB817
:100B1000ABB9FBB80F2EF1E1CF2EF02DCBB80F2ED5
:100B2000FDE29F2EF02D9BB80F2EF7E1BF2EF02D8A
:100B3000BBB80F2EF3E3CF2EF02DCBB8FBB90F2EA1
:100B4000F9E09F2EF02D9BB80F2EFDE1BF2EF02D6A
:100B5000BBB8CBB8FBB99BB80F2EFEE19F2EF02D92
:100B60009BB8CBB8FBB80F2EF3E1BF2EF02DBBB86E
:100B70002BB80F2EFFE09F2EF02D9BB80F2EFBE21F
:100B8000BF2EF02DBBB80F2EFEE19F2EF02D9BB88F
:100B9000CBB86894BB24B2F8BBB80F2EFFE09F2EF1
:100BA000F02D9BB80F2EFBE2BF2EF02DBBB80F2E01
:100BB000FFE19F2EF02D9BB80F2EF2E3BF2EF02DFC
:100BC000BBB80F2EF6E09F2EF02D9BB80F2EFFE541
:100BD000BF2EF02DBBB80F2EFFE49F2EF02D9BB83B
:100BE0000F2EF7E6BF2EF02DBBB80F2EF4E39F2E8D
:100BF000F02D9BB81BB90F2EF4E4BF2EF02DBBB81F
:100C00005BB80F2EFAE49F2EF02D9BB80F2EF6E660
:100C1000AF2EF02DABB80F2EF5E3BF2EF02DBBB8E5
:100C20000F2EFCE39F2EF02D9BB80F2EF0E5BF2E6C
:100C3000F02DBBB8ABB80F2EF5E39F2EF02D9BB86F
:100C40000F2EFCE3BF2EF02DBBB80F2EF1E59F2E2B
:100C5000F02D9BB8ABB81BB90F2EF6E4BF2EF02DCC
:100C6000BBB80F2EF3E69F2EF02D9BB80F2EF2E4AB
:100C7000BF2EF02DBBB80F2EFEE5BF2EF02DBBB85A
:100C80000F2EF1E59F2EF02D9BB8ABB80F2EF7E39A
:100C90009F2EF02D9BB80F2EF2E49F2EF02D9BB8C7
:100CA000BBB80F2EF2E59F2EF02D9BB80F2EF5E668
:100CB0009F2EF02D9BB80F2EF9E39F2EF02D9BB8A1
:100CC0000F2EF7EF9F2EF02D9BB80F2EF7EE9F2ED5
:100CD000F02D9BB88BB97BB94BB90F2EFCED9F2E35
:100CE000F02D9BB80BB90F2EF2EE9F2EF02D9BB876
:100CF0009BB90F2EFDEC9F2EF02D9BB80F2EF4ED1F
:100D00009F2EF02D9BB8EBB99BB90F2EFDEC9F2EBB
:100D1000F02D9BB80F2EF4ED9F2EF02D9BB80F2ECB
:100D2000F9EE9F2EF02D9BB89BB94BB90F2EFEED1F
:100D30009F2EF02D9BB80F2EFBEF9F2EF02D9BB812
:100D40000F2EFAED9F2EF02D9BB80F2EF6EF9F2E53
:100D5000F02D9BB80F2EF9EE9F2EF02D9BB89BB96E
:100D60000F2EFFEC9F2EF02D9BB80F2EFAED9F2E2D
:100D7000F02D9BB80F2EF6EF9F2EF02D9BB80F2E67
:100D8000FAEE9F2EF02D9BB80F2EFDEF9F2EF02D2B
:100D90009BB80F2EF1ED9F2EF02D9BB818B81BB805
:100DA0001BB81BB81BB81BB86894992493F89BB860
:100DB0006894992494F89BB80F2EF8E19F2EF02D9B
:100DC0009BB86894992495F89BB83BB82BB81BB98D
:100DD0006894992496F89BB84BB86BB85BB86BB91C
:100DE0000F2EF0E79F2EF02D9BB80F2EF8E79F2EC9
:100DF000F02D9BB86894992497F89BB80F2EF8E8CB
:100E00009F2EF02D9BB80F2EF0E99F2EF02D9BB852
:100E10000F2EF8E99F2EF02D9BB80F2EF0EA9F2E93
:100E2000F02D9BB82BB97BB88BB83BB90F2EF8ECE3
:100E30009F2EF02D9BB84BB90F2EF8ED9F2EF02D65
:100E40009BB80F2EF0EE9F2EF02D9BB8EBB988B912
:100E50000F2EF0EF9F2EF02D9BB80BB90F2EFDE358
:100E60009F2EF02D9BB80F2EFAE09F2EF02D9BB8F1
:100E70000F2EF1E29F2EF02D9BB86894992496F8DE
:100E80009BB81BB8FBB90F2EF6E09F2EF02D9BB838
:100E90000F2EF7E19F2EF02D9BB80F2EFBE39F2E18
:100EA000F02D9BB80F2EF3E19F2EF02D9BB80F2E47
:100EB000F6E39F2EF02D9BB80F2EF3E29F2EF02D20
:100EC0009BB80F2EFFE39F2EF02D9BB8FBB90F2E82
:100ED000F9E09F2EF02D9BB80F2EFEE19F2EF02DF6
:100EE0009BB86894992496F89BB8ABB90F2EF6E09E
:100EF0009F2EF02D9BB80F2EF4E19F2EF02D9BB866
:100F00000F2EF7E39F2EF02D9BB80F2EFEE19F2EA4
:100F1000F02D9BB86894992496F89BB8ABB90F2E26
:100F2000F3E09F2EF02D9BB80F2EFBE09F2EF02DAF
:100F30009BB80F2EF4E29F2EF02D9BB80F2EFFE3EF
:100F40009F2EF02D9BB8FBB80F2EF2E19F2EF02DB7
:100F50009BB80F2EF4E39F2EF02D9BB83BB80F2EBD
:100F6000FCE39F2EF02D9BB86894992494F89BB8CD
:100F70000F2EFFE29F2EF02D9BB80F2EF1E39F2E38
:100F8000F02D9BB80F2EFDE29F2EF02D9BB80F2E5B
:100F9000F5E39F2EF02D9BB80F2EF5E29F2EF02D3E
:100FA0009BB80F2EFEE39F2EF02D9BB80F2EFDE772
:100FB0009F2EF02D9BB80F2EFAE49F2EF02D9BB89C
:100FC0000F2EF1E69F2EF02D9BB86894992497F888
:100FD0009BB86894992496F89BB80F2EF2E49F2E44
:100FE000F02D9BB80F2EF6E49F2EF02D9BB80F2E00
:100FF000F7E59F2EF02D9BB80F2EFBE79F2EF02DCF
:101000009BB80F2EF3E59F2EF02D9BB80F2EF6E721
:101010009F2EF02D9BB80F2EF3E69F2EF02D9BB840
:101020000F2EFFE79F2EF02D9BB80F2EF2E49F2E80
:10103000F02D9BB80F2EF9E49F2EF02D9BB8BBB876
:101040006894992497F89BB80F2EF1E49F2EF02D09
:101050009BB80F2EF6E49F2EF02D9BB80F2EF4E5D3
:101060009F2EF02D9BB80F2EF7E79F2EF02D9BB8EB
:10107000BBB86894992497F89BB80F2EF1E49F2E83
:10108000F02D9BB80F2EF3E49F2EF02D9BB80F2E62
:10109000FBE49F2EF02D9BB80F2EF4E69F2EF02D33
:1010A0009BB80F2EFFE79F2EF02D9BB80F2EF5E477
:1010B0009F2EF02D9BB80F2EF2E59F2EF02D9BB8A2
:1010C0000F2EF4E79F2EF02D9BB86BB90F2EFCE787
:1010D0009F2EF02D9BB80F2EF0E59F2EF02D9BB884
:1010E0000F2EFFE69F2EF02D9BB80F2EF1E79F2EBF
:1010F000F02D9BB80F2EFDE69F2EF02D9BB80F2EE6
:10110000F5E79F2EF02D9BB80F2EF5E69F2EF02DC4
:101110009BB80F2EFEE79F2EF02D9BB80F2EFDEBF8
:101120009F2EF02D9BB80F2EFAE89F2EF02D9BB826
:101130000F2EF1EA9F2EF02D9BB83BB968949924AD
:1011400097F89BB80F2EF2E89F2EF02D9BB80F2E2C
:10115000F6E89F2EF02D9BB80F2EF7E99F2EF02D6D
:101160009BB80F2EFBEB9F2EF02D9BB80F2EF3E9B3
:101170009F2EF02D9BB80F2EF6EB9F2EF02D9BB8D7
:101180000F2EF3EA9F2EF02D9BB80F2EFFEB9F2E14
:10119000F02D9BB80F2EF2E89F2EF02D9BB80F2E4E
:1011A000F9E89F2EF02D9BB80F2EFEE99F2EF02D13
:1011B0009BB83BB90F2EF1E89F2EF02D9BB80F2E58
:1011C000F6E89F2EF02D9BB80F2EF4E99F2EF02D00
:1011D0009BB80F2EF7EB9F2EF02D9BB80F2EFEE93C
:1011E0009F2EF02D9BB83BB90F2EF1E89F2EF02DCE
:1011F0009BB80F2EF3E89F2EF02D9BB80F2EFBE827
:101200009F2EF02D9BB80F2EF4EA9F2EF02D9BB849
:101210000F2EFFEB9F2EF02D9BB80F2EF5E89F2E83
:10122000F02D9BB80F2EF2E99F2EF02D9BB80F2EBC
:10123000F4EB9F2EF02D9BB82BB90F2EFCEB9F2EBD
:10124000F02D9BB80F2EF0E99F2EF02D9BB80F2E9E
:10125000FFEA9F2EF02D9BB80F2EF1EB9F2EF02D65
:101260009BB80F2EFDEA9F2EF02D9BB80F2EF5EBAD
:101270009F2EF02D9BB80F2EF5EA9F2EF02D9BB8D8
:101280000F2EFEEB9F2EF02D9BB80F2EFDEF9F2E05
:10129000F02D9BB80F2EFAEC9F2EF02D9BB80F2E41
:1012A000F1EE9F2EF02D9BB81BB83BB90F2EF2EC40
:1012B0009F2EF02D9BB80F2EF6EC9F2EF02D9BB895
:1012C0000F2EF7ED9F2EF02D9BB80F2EFBEF9F2ECC
:1012D000F02D9BB80F2EF3ED9F2EF02D9BB80F2E07
:1012E000F6EF9F2EF02D9BB80F2EF3EE9F2EF02DD4
:1012F0009BB88BB90F2EF2EC9F2EF02D9BB80F2EC2
:10130000F9EC9F2EF02D9BB80F2EFEED9F2EF02DA9
:101310009BB81BB80F2EF1EC9F2EF02D9BB80F2E13
:10132000F6EC9F2EF02D9BB80F2EF4ED9F2EF02D96
:101330009BB80F2EF7EF9F2EF02D9BB80F2EFEEDD2
:101340009F2EF02D9BB81BB80F2EF1EC9F2EF02D89
:101350009BB80F2EF3EC9F2EF02D9BB80F2EFBECBD
:101360009F2EF02D9BB80F2EF4EE9F2EF02D9BB8E4
:101370008BB90F2EF5EC9F2EF02D9BB80F2EF2EDB2
:101380009F2EF02D9BB80F2EF4EF9F2EF02D9BB8C3
:10139000EBB90F2EFCEF9F2EF02D9BB84BB90F2E03
:1013A000FFEE9F2EF02D9BB80F2EF1EF9F2EF02D0C
:1013B0009BB80F2EFDEE9F2EF02D9BB80F2EF5EF54
:1013C0009F2EF02D9BB80F2EF5EE9F2EF02D9BB883
:1013D0009BB918B81BB81BB81BB81BB81BB86894CE
:1013E000992493F89BB86894992494F89BB80F2E8D
:1013F000F8E19F2EF02D9BB86894992495F89BB83E
:101400003BB82BB81BB96894992496F89BB84BB895
:101410006BB85BB86BB90F2EF0E79F2EF02D9BB821
:101420000F2EF8E79F2EF02D9BB86894992497F81B
:101430009BB80F2EF8E89F2EF02D9BB80F2EF0E9E9
:101440009F2EF02D9BB80F2EF8E99F2EF02D9BB804
:101450000F2EF0EA9F2EF02D9BB82BB97BB88BB8DE
:101460003BB90F2EF8EC9F2EF02D9BB84BB90F2EE9
:10147000F8ED9F2EF02D9BB80F2EF0EE9F2EF02D45
:101480009BB8EBB988B90F2EF0EF9F2EF02D9BB8CB
:101490000BB90F2EF3E59F2EF02D9BB80F2EFDE01C
:1014A0009F2EF02D9BB80F2EFDE29F2EF02D9BB8A6
:1014B000EBB8ABB9FBB90F2EF9E09F2EF02D9BB81E
:1014C0000F2EFFE19F2EF02D9BB80F2EFFE49F2ED5
:1014D000F02D9BB80F2EFAE19F2EF02D9BB84BB844
:1014E0000F2EFFE29F2EF02D9BB8DBB80F2EF3E0FE
:1014F0009F2EF02D9BB80F2EFCE09F2EF02D9BB859
:101500003BB8EBB8ABB9FBB80F2EF4E19F2EF02D32
:101510009BB80F2EFDE39F2EF02D9BB80F2EF7E406
:101520009F2EF02D9BB82BB8DBB8FBB80F2EF4E143
:101530009F2EF02D9BB80F2EFCE39F2EF02D9BB815
:101540004BB80F2EFFE29F2EF02D9BB8DBB80F2E6D
:10155000F3E09F2EF02D9BB80F2EFCE09F2EF02D78
:101560009BB80F2EFAE29F2EF02D9BB8EBB81BB85C
:10157000ABB9FBB80F2EF5E19F2EF02D9BB80F2EC7
:10158000FFE39F2EF02D9BB80F2EF4E49F2EF02D3D
:101590009BB82BB90F2EF2E69F2EF02D9BB80F2E85
:1015A000F2E89F2EF02D9BB80F2EFBEA9F2EF02D18
:1015B0009BB8EBB80F2EF7E59F2EF02D9BB8BBB86C
:1015C0000F2EF4E79F2EF02D9BB80F2EF4EA9F2EDE
:1015D000F02D9BB80F2EFFE69F2EF02D9BB80F2EFF
:1015E000FDE99F2EF02D9BB80F2EF4E89F2EF02DD5
:1015F0009BB85BB96BB80F2EF1E69F2EF02D9BB810
:101600000F2EFDE79F2EF02D9BB80F2EFBEA9F2E8D
:10161000F02D9BB8EBB80F2EFAE59F2EF02D9BB85E
:101620000F2EF9E69F2EF02D9BB80F2EF2E99F2E7C
:10163000F02D9BB80F2EFCE99F2EF02D9BB80F2E9E
:10164000F5E89F2EF02D9BB85BB90F2EFAE59F2E83
:10165000F02D9BB80F2EF9E69F2EF02D9BB80F2E84
:10166000F1E99F2EF02D9BB80F2EFDE99F2EF02D56
:101670009BB80F2EF4E89F2EF02D9BB85BB96BB88A
:101680000F2EF1E69F2EF02D9BB80F2EFFE79F2E19
:10169000F02D9BB80F2EFBEA9F2EF02D9BB8DBB8E8
:1016A000EBB80F2EFAE59F2EF02D9BB80F2EFAE621
:1016B0009F2EF02D9BB80F2EF4E99F2EF02D9BB896
:1016C000BBB90F2EFCEF9F2EF02D9BB80F2EF6EB23
:1016D0009F2EF02D9BB80F2EF6ED9F2EF02D9BB870
:1016E0008BB95BB90F2EFBEA9F2EF02D9BB80F2E06
:1016F000F2EB9F2EF02D9BB80F2EF8EC9F2EF02DC5
:101700009BB80BB90F2EF3EC9F2EF02D9BB80F2E2C
:10171000F1EF9F2EF02D9BB80F2EF8ED9F2EF02DA0
:101720009BB89BB90F2EFCEA9F2EF02D9BB80F2E75
:10173000F5EB9F2EF02D9BB80F2EF1ED9F2EF02D87
:101740009BB88BB95BB90F2EFEEA9F2EF02D9BB88C
:101750000F2EFDEB9F2EF02D9BB80F2EF6EE9F2E39
:10176000F02D9BB80F2EF0EF9F2EF02D9BB80F2E73
:10177000F9ED9F2EF02D9BB89BB90F2EFEEA9F2E00
:10178000F02D9BB80F2EFDEB9F2EF02D9BB80F2E4A
:10179000F5EE9F2EF02D9BB80F2EF1EF9F2EF02D22
:1017A0009BB80F2EF8ED9F2EF02D9BB89BB90F2EF6
:1017B000FCEA9F2EF02D9BB80F2EF5EB9F2EF02DFF
:1017C0009BB80F2EF3ED9F2EF02D9BB88BB90F2EEB
:1017D000F9EA9F2EF02D9BB85BB90F2EFEEA9F2EE3
:1017E000F02D9BB80F2EFEEB9F2EF02D9BB8EBB982
:1017F0000F2EFDEE9F2EF02D9BB818B81BB81BB80E
:101800001BB81BB81BB86894992493F89BB86894CC
:10181000992494F89BB80F2EF8E19F2EF02D9BB8D9
:101820006894992495F89BB83BB82BB81BB9689479
:10183000992496F89BB84BB86BB85BB86BB90F2E70
:10184000F0E79F2EF02D9BB80F2EF8E79F2EF02D7E
:101850009BB86894992497F89BB80F2EF8E89F2EB0
:10186000F02D9BB80F2EF0E99F2EF02D9BB80F2E78
:10187000F8E99F2EF02D9BB80F2EF0EA9F2EF02D49
:101880009BB82BB97BB88BB83BB90F2EF8EC9F2EC9
:10189000F02D9BB84BB90F2EF8ED9F2EF02D9BB875
:1018A0000F2EF0EE9F2EF02D9BB8EBB988B90F2EBE
:1018B000F0EF9F2EF02D9BB80BB90F2EFCE29F2E60
:1018C000F02D9BB80F2EFCE19F2EF02D9BB80F2E14
:1018D000F4E39F2EF02D9BB8ABB9FBB80F2EF1E1CE
:1018E0009F2EF02D9BB80F2EFDE29F2EF02D9BB862
:1018F0000F2EF7E19F2EF02D9BB8CBB8FBB90F2E22
:10190000F9E09F2EF02D9BB80F2EFDE19F2EF02DBC
:101910009BB8CBB8FBB90F2EF9E09F2EF02D9BB8EA
:101920000F2EFEE19F2EF02D9BB8CBB8FBB80F2EEB
:10193000F3E19F2EF02D9BB82BB80F2EFFE09F2ECA
:10194000F02D9BB80F2EFBE29F2EF02D9BB80F2E93
:10195000FEE19F2EF02D9BB8CBB86894992492F8A5
:101960009BB80F2EFFE09F2EF02D9BB80F2EFBE2B1
:101970009F2EF02D9BB80F2EFFE19F2EF02D9BB8D0
:101980000F2EF2E39F2EF02D9BB80F2EF6E09F2E28
:10199000F02D9BB80F2EFFE59F2EF02D9BB80F2E3C
:1019A000FFE49F2EF02D9BB80F2EF7E69F2EF02D13
:1019B0009BB80F2EF4E39F2EF02D9BB81BB90F2E72
:1019C000F4E49F2EF02D9BB85BB80F2EFAE49F2E07
:1019D000F02D9BB8ABB80F2EF5E39F2EF02D9BB8E2
:1019E0000F2EFCE39F2EF02D9BB80F2EF0E59F2EBF
:1019F000F02D9BB8ABB80F2EF5E39F2EF02D9BB8C2
:101A00000F2EFCE39F2EF02D9BB80F2EF1E59F2E9D
:101A1000F02D9BB8ABB81BB90F2EF6E49F2EF02D1E
:101A20009BB80F2EF3E69F2EF02D9BB80F2EF2E4FD
:101A30009F2EF02D9BB8BBB80F2EF1E59F2EF02DF9
:101A40009BB8ABB80F2EF7E39F2EF02D9BB80F2E4F
:101A5000F2E49F2EF02D9BB8BBB80F2EF2E59F2E1F
:101A6000F02D9BB80F2EF5E69F2EF02D9BB80F2E74
:101A7000F9E39F2EF02D9BB80F2EF2E99F2EF02D4B
:101A80009BB80F2EF2E89F2EF02D9BB80F2EFAE98F
:101A90009F2EF02D9BB80F2EF7E69F2EF02D9BB8B2
:101AA0000F2EFBE69F2EF02D9BB80F2EF7E79F2EF3
:101AB000F02D9BB80F2EF3E99F2EF02D9BB80F2E23
:101AC000FDE79F2EF02D9BB8BBB96BB90F2EFFE63B
:101AD0009F2EF02D9BB80F2EF3E89F2EF02D9BB874
:101AE000BBB96BB90F2EFFE69F2EF02D9BB80F2EC2
:101AF000F4E89F2EF02D9BB8BBB90F2EFBE69F2E6E
:101B0000F02D9BB80F2EF9E79F2EF02D9BB80F2ECE
:101B1000F6E99F2EF02D9BB80F2EF5E79F2EF02DA6
:101B20009BB80F2EF1E99F2EF02D9BB80F2EF4E8F5
:101B30009F2EF02D9BB8BBB90F2EFAE69F2EF02DED
:101B40009BB80F2EF5E79F2EF02D9BB80F2EF1E9D5
:101B50009F2EF02D9BB80F2EF5E89F2EF02D9BB8F1
:101B60000F2EF8E99F2EF02D9BB80F2EFCE69F2E2E
:101B7000F02D9BB80F2EF5EC9F2EF02D9BB80F2E5D
:101B8000F5EB9F2EF02D9BB80F2EFDEC9F2EF02D28
:101B90009BB80F2EFAE99F2EF02D9BB80F2EFEE971
:101BA0009F2EF02D9BB85BB90F2EF6EC9F2EF02DDB
:101BB0009BB87BB87BB90F2EFBE99F2EF02D9BB80D
:101BC0000F2EF2EA9F2EF02D9BB80F2EF6EB9F2ED4
:101BD000F02D9BB87BB90F2EFBE99F2EF02D9BB803
:101BE0000F2EF2EA9F2EF02D9BB80F2EF7EB9F2EB3
:101BF000F02D9BB87BB90F2EFEE99F2EF02D9BB8E0
:101C00000F2EFCEA9F2EF02D9BB80F2EF9EC9F2E85
:101C1000F02D9BB82BB90F2EF4EC9F2EF02D9BB816
:101C20000F2EF7EB9F2EF02D9BB87BB90F2EFDE901
:101C30009F2EF02D9BB82BB90F2EF4EC9F2EF02D7C
:101C40009BB88BB80F2EFBEC9F2EF02D9BB80F2E60
:101C5000FFE99F2EF02D9BB80F2EF7EF9F2EF02D52
:101C60009BB80F2EF7EE9F2EF02D9BB88BB97BB94A
:101C70004BB90F2EFCED9F2EF02D9BB80BB90F2EFC
:101C8000F2EE9F2EF02D9BB89BB90F2EFDEC9F2EF0
:101C9000F02D9BB80F2EF4ED9F2EF02D9BB8EBB9D5
:101CA0009BB90F2EFDEC9F2EF02D9BB80F2EF4ED5F
:101CB0009F2EF02D9BB80F2EF9EE9F2EF02D9BB886
:101CC0009BB94BB90F2EFEED9F2EF02D9BB80F2E1A
:101CD000FBEF9F2EF02D9BB80F2EFAED9F2EF02DCF
:101CE0009BB80F2EF6EF9F2EF02D9BB80F2EF9EE1E
:101CF0009F2EF02D9BB89BB90F2EFFEC9F2EF02D41
:101D00009BB80F2EFAED9F2EF02D9BB80F2EF6EFFD
:101D10009F2EF02D9BB80F2EFAEE9F2EF02D9BB824
:101D20000F2EFDEF9F2EF02D9BB80F2EF1ED9F2E65
:101D3000F02D9BB818B81BB81BB81BB81BB81BB844
:101D40006894992493F89BB86894992494F89BB864
:101D50000F2EF8E19F2EF02D9BB86894992495F8EA
:101D60009BB83BB82BB81BB96894992496F89BB8DC
:101D70004BB86BB85BB86BB90F2EF0E79F2EF02D08
:101D80009BB80F2EF8E79F2EF02D9BB868949924EE
:101D900097F89BB80F2EF8E89F2EF02D9BB80F2ECA
:101DA000F0E99F2EF02D9BB80F2EF8E99F2EF02D15
:101DB0009BB80F2EF0EA9F2EF02D9BB82BB97BB865
:101DC0008BB83BB90F2EF8EC9F2EF02D9BB84BB97A
:101DD0000F2EF8ED9F2EF02D9BB80F2EF0EE9F2EBC
:101DE000F02D9BB8EBB988B90F2EF0EF9F2EF02D98
:101DF0009BB80BB90F2EFDEF9F2EF02D9BB80F2E29
:101E0000FAEC9F2EF02D9BB80F2EF1EE9F2EF02DA9
:101E10009BB81BB83BB90F2EF2EC9F2EF02D9BB850
:101E20000F2EF6EC9F2EF02D9BB80F2EF7ED9F2E68
:101E3000F02D9BB80F2EFBEF9F2EF02D9BB80F2E91
:101E4000F3ED9F2EF02D9BB80F2EF6EF9F2EF02D69
:101E50009BB80F2EF3EE9F2EF02D9BB88BB90F2E53
:101E6000F2EC9F2EF02D9BB80F2EF9EC9F2EF02D4B
:101E70009BB80F2EFEED9F2EF02D9BB81BB80F2E9A
:101E8000F1EC9F2EF02D9BB80F2EF6EC9F2EF02D2F
:101E90009BB80F2EF4ED9F2EF02D9BB80F2EF7EF71
:101EA0009F2EF02D9BB80F2EFEED9F2EF02D9BB890
:101EB0001BB80F2EF1EC9F2EF02D9BB80F2EF3ECDC
:101EC0009F2EF02D9BB80F2EFBEC9F2EF02D9BB874
:101ED0000F2EF4EE9F2EF02D9BB88BB90F2EF5EC44
:101EE0009F2EF02D9BB80F2EF2ED9F2EF02D9BB85C
:101EF0000F2EF4EF9F2EF02D9BB8EBB90F2EFCEFB9
:101F00009F2EF02D9BB84BB90F2EFFEE9F2EF02D7C
:101F10009BB80F2EF1EF9F2EF02D9BB80F2EFDEEEC
:101F20009F2EF02D9BB80F2EF5EF9F2EF02D9BB816
:101F30000F2EF5EE9F2EF02D9BB89BB90F2EFDEBCB
:101F40009F2EF02D9BB80F2EFAE89F2EF02D9BB8F8
:101F50000F2EF1EA9F2EF02D9BB83BB9689499247F
:101F600097F89BB80F2EF2E89F2EF02D9BB80F2EFE
:101F7000F6E89F2EF02D9BB80F2EF7E99F2EF02D3F
:101F80009BB80F2EFBEB9F2EF02D9BB80F2EF3E985
:101F90009F2EF02D9BB80F2EF6EB9F2EF02D9BB8A9
:101FA0000F2EF3EA9F2EF02D9BB80F2EFFEB9F2EE6
:101FB000F02D9BB80F2EF2E89F2EF02D9BB80F2E20
:101FC000F9E89F2EF02D9BB80F2EFEE99F2EF02DE5
:101FD0009BB83BB90F2EF1E89F2EF02D9BB80F2E2A
:101FE000F6E89F2EF02D9BB80F2EF4E99F2EF02DD2
:101FF0009BB80F2EF7EB9F2EF02D9BB80F2EFEE90E
:102000009F2EF02D9BB83BB90F2EF1E89F2EF02D9F
:102010009BB80F2EF3E89F2EF02D9BB80F2EFBE8F8
:102020009F2EF02D9BB80F2EF4EA9F2EF02D9BB81B
:102030000F2EFFEB9F2EF02D9BB80F2EF5E89F2E55
:10204000F02D9BB80F2EF2E99F2EF02D9BB80F2E8E
:10205000F4EB9F2EF02D9BB82BB90F2EFCEB9F2E8F
:10206000F02D9BB80F2EF0E99F2EF02D9BB80F2E70
:10207000FFEA9F2EF02D9BB80F2EF1EB9F2EF02D37
:102080009BB80F2EFDEA9F2EF02D9BB80F2EF5EB7F
:102090009F2EF02D9BB80F2EF5EA9F2EF02D9BB8AA
:1020A0000F2EFEEB9F2EF02D9BB80F2EFDE79F2EDF
:1020B000F02D9BB80F2EFAE49F2EF02D9BB80F2E1B
:1020C000F1E69F2EF02D9BB86894992497F89BB861
:1020D0006894992496F89BB80F2EF2E49F2EF02D69
:1020E0009BB80F2EF6E49F2EF02D9BB80F2EF7E530
:1020F0009F2EF02D9BB80F2EFBE79F2EF02D9BB847
:102100000F2EF3E59F2EF02D9BB80F2EF6E79F2E96
:10211000F02D9BB80F2EF3E69F2EF02D9BB80F2EBF
:10212000FFE79F2EF02D9BB80F2EF2E49F2EF02D8F
:102130009BB80F2EF9E49F2EF02D9BB8BBB8689486
:10214000992497F89BB80F2EF1E49F2EF02D9BB8A1
:102150000F2EF6E49F2EF02D9BB80F2EF4E59F2E48
:10216000F02D9BB80F2EF7E79F2EF02D9BB8BBB834
:102170006894992497F89BB80F2EF1E49F2EF02DC8
:102180009BB80F2EF3E49F2EF02D9BB80F2EFBE48F
:102190009F2EF02D9BB80F2EF4E69F2EF02D9BB8AE
:1021A0000F2EFFE79F2EF02D9BB80F2EF5E49F2EEC
:1021B000F02D9BB80F2EF2E59F2EF02D9BB80F2E21
:1021C000F4E79F2EF02D9BB86BB90F2EFCE79F2EE6
:1021D000F02D9BB80F2EF0E59F2EF02D9BB80F2E03
:1021E000FFE69F2EF02D9BB80F2EF1E79F2EF02DCE
:1021F0009BB80F2EFDE69F2EF02D9BB80F2EF5E716
:102200009F2EF02D9BB80F2EF5E69F2EF02D9BB83C
:102210000F2EFEE79F2EF02D9BB80F2EFDE39F2E75
:10222000F02D9BB80F2EFAE09F2EF02D9BB80F2EAD
:10223000F1E29F2EF02D9BB86894992496F89BB8F4
:102240001BB8FBB90F2EF6E09F2EF02D9BB80F2E7A
:10225000F7E19F2EF02D9BB80F2EFBE39F2EF02D64
:102260009BB80F2EF3E19F2EF02D9BB80F2EF6E3B7
:102270009F2EF02D9BB80F2EF3E29F2EF02D9BB8D2
:102280000F2EFFE39F2EF02D9BB8FBB90F2EF9E028
:102290009F2EF02D9BB80F2EFEE19F2EF02D9BB8A8
:1022A0006894992496F89BB8ABB90F2EF6E09F2E50
:1022B000F02D9BB80F2EF4E19F2EF02D9BB80F2E22
:1022C000F7E39F2EF02D9BB80F2EFEE19F2EF02DF1
:1022D0009BB86894992496F89BB8ABB90F2EF3E09D
:1022E0009F2EF02D9BB80F2EFBE09F2EF02D9BB85C
:1022F0000F2EF4E29F2EF02D9BB80F2EFFE39F2EA2
:10230000F02D9BB8FBB80F2EF2E19F2EF02D9BB85D
:102310000F2EF4E39F2EF02D9BB83BB80F2EFCE35D
:102320009F2EF02D9BB86894992494F89BB80F2E9B
:10233000FFE29F2EF02D9BB80F2EF1E39F2EF02D84
:102340009BB80F2EFDE29F2EF02D9BB80F2EF5E3CC
:102350009F2EF02D9BB80F2EF5E29F2EF02D9BB8EF
:102360000F2EFEE39F2EF02D9BB818B81BB81BB89C
:102370001BB81BB81BB86894992493F89BB8689451
:10238000992494F89BB80F2EF8E19F2EF02D9BB85E
:102390006894992495F89BB83BB82BB81BB96894FE
:1023A000992496F89BB84BB86BB85BB86BB90F2EF5
:1023B000F0E79F2EF02D9BB80F2EF8E79F2EF02D03
:1023C0009BB86894992497F89BB80F2EF8E89F2E35
:1023D000F02D9BB80F2EF0E99F2EF02D9BB80F2EFD
:1023E000F8E99F2EF02D9BB80F2EF0EA9F2EF02DCE
:1023F0009BB82BB97BB88BB83BB90F2EF8EC9F2E4E
:10240000F02D9BB84BB90F2EF8ED9F2EF02D9BB8F9
:102410000F2EF0EE9F2EF02D9BB8EBB988B90F2E42
:10242000F0EF9F2EF02D9BB80BB90F2EFCEF9F2ED7
:10243000F02D9BB80F2EF6EB9F2EF02D9BB80F2E94
:10244000F6ED9F2EF02D9BB88BB95BB90F2EFBEAF2
:102450009F2EF02D9BB80F2EF2EB9F2EF02D9BB8E8
:102460000F2EF8EC9F2EF02D9BB80BB90F2EF3EC2E
:102470009F2EF02D9BB80F2EF1EF9F2EF02D9BB8C5
:102480000F2EF8ED9F2EF02D9BB89BB90F2EFCEA76
:102490009F2EF02D9BB80F2EF5EB9F2EF02D9BB8A5
:1024A0000F2EF1ED9F2EF02D9BB88BB95BB90F2E3F
:1024B000FEEA9F2EF02D9BB80F2EFDEB9F2EF02DE8
:1024C0009BB80F2EF6EE9F2EF02D9BB80F2EF0EF3F
:1024D0009F2EF02D9BB80F2EF9ED9F2EF02D9BB85F
:1024E0009BB90F2EFEEA9F2EF02D9BB80F2EFDEB11
:1024F0009F2EF02D9BB80F2EF5EE9F2EF02D9BB842
:102500000F2EF1EF9F2EF02D9BB80F2EF8ED9F2E82
:10251000F02D9BB89BB90F2EFCEA9F2EF02D9BB897
:102520000F2EF5EB9F2EF02D9BB80F2EF3ED9F2E67
:10253000F02D9BB88BB90F2EF9EA9F2EF02D9BB88A
:102540005BB90F2EFEEA9F2EF02D9BB80F2EFEEBEF
:102550009F2EF02D9BB8EBB90F2EFDEE9F2EF02D88
:102560009BB82BB90F2EF2E69F2EF02D9BB80F2EA5
:10257000F2E89F2EF02D9BB80F2EFBEA9F2EF02D38
:102580009BB8EBB80F2EF7E59F2EF02D9BB8BBB88C
:102590000F2EF4E79F2EF02D9BB80F2EF4EA9F2EFE
:1025A000F02D9BB80F2EFFE69F2EF02D9BB80F2E1F
:1025B000FDE99F2EF02D9BB80F2EF4E89F2EF02DF5
:1025C0009BB85BB96BB80F2EF1E69F2EF02D9BB830
:1025D0000F2EFDE79F2EF02D9BB80F2EFBEA9F2EAE
:1025E000F02D9BB8EBB80F2EFAE59F2EF02D9BB87F
:1025F0000F2EF9E69F2EF02D9BB80F2EF2E99F2E9D
:10260000F02D9BB80F2EFCE99F2EF02D9BB80F2EBE
:10261000F5E89F2EF02D9BB85BB90F2EFAE59F2EA3
:10262000F02D9BB80F2EF9E69F2EF02D9BB80F2EA4
:10263000F1E99F2EF02D9BB80F2EFDE99F2EF02D76
:102640009BB80F2EF4E89F2EF02D9BB85BB96BB8AA
:102650000F2EF1E69F2EF02D9BB80F2EFFE79F2E39
:10266000F02D9BB80F2EFBEA9F2EF02D9BB8DBB808
:10267000EBB80F2EFAE59F2EF02D9BB80F2EFAE641
:102680009F2EF02D9BB80F2EF4E99F2EF02D9BB8B6
:10269000BBB90F2EF3E59F2EF02D9BB80F2EFDE05A
:1026A0009F2EF02D9BB80F2EFDE29F2EF02D9BB894
:1026B000EBB8ABB9FBB90F2EF9E09F2EF02D9BB80C
:1026C0000F2EFFE19F2EF02D9BB80F2EFFE49F2EC3
:1026D000F02D9BB80F2EFAE19F2EF02D9BB84BB832
:1026E0000F2EFFE29F2EF02D9BB8DBB80F2EF3E0EC
:1026F0009F2EF02D9BB80F2EFCE09F2EF02D9BB847
:102700003BB8EBB8ABB9FBB80F2EF4E19F2EF02D20
:102710009BB80F2EFDE39F2EF02D9BB80F2EF7E4F4
:102720009F2EF02D9BB82BB8DBB8FBB80F2EF4E131
:102730009F2EF02D9BB80F2EFCE39F2EF02D9BB803
:102740004BB80F2EFFE29F2EF02D9BB8DBB80F2E5B
:10275000F3E0DF2EF02DDBB80F2EFCE09F2EF02DE6
:102760009BB80F2EFAE2DF2EF02DDBB8EBB81BB8CA
:10277000ABB9FBB80F2EF5E1EF2EF02DEBB80F2E15
:10278000FFE39F2EF02D9BB80F2EF4E4DF2EF02DEB
:10279000DBB818B81BB81BB81BB81BB81BB86894BB
:1027A000EE24E3F8EBB86894992494F89BB80F2EC4
:1027B000F8E1DF2EF02DDBB86894EE24E5F8EBB8F5
:1027C0003BB82BB81BB96894992496F89BB84BB8C2
:1027D0006BB85BB86BB90F2EF0E7DF2EF02DDBB8CE
:1027E0000F2EF8E7EF2EF02DEBB86894992497F8A8
:1027F0009BB80F2EF8E8DF2EF02DDBB80F2EF0E996
:10280000EF2EF02DEBB80F2EF8E99F2EF02D9BB890
:102810000F2EF0EADF2EF02DDBB82BB97BB88BB88A
:102820003BB90F2EF8ECEF2EF02DEBB84BB90F2E75
:10283000F8ED9F2EF02D9BB80F2EF0EEDF2EF02D31
:10284000DBB8EBB988B90F2EF0EFEF2EF02DEBB817
:102850000BB90F2EF7EF9F2EF02D9BB80F2EF7EE32
:10286000DF2EF02DDBB88BB97BB94BB98CEDE82EA0
:10287000EBB80BB982EE8BB99BB90DEC902E9BB8DF
:1028800084EDD82EDBB8EBB99BB99BB8DBB8E9EE89
:10289000EE2EEBB89BB94BB98EED8BB90BEF902EAA
:1028A0009BB88AEDD82EDBB8E6EFEE2EEBB889EEBA
:1028B0008BB99BB99FEC9BB9DBB8EBB80AEE902EB5
:1028C0009BB88DEFD82EDBB891EDE92EEBB885ECF7
:1028D0008BB995EB9BB9EDEC9E2E9BB80AE9D02EF7
:1028E000DBB88EE9E82EEBB85BB986EC8BB97BB828
:1028F0007BB99BE99BB952EA952E9BB8E6EBDE2E9D
:10290000DBB87BB99BB99BB807EBE02EEBB87BB982
:102910008EE98BB99CEA9BB989EC982E9BB82BB9B0
:1029200094ECD92EDBB8EBB87BB95DE9E52EEBB8BA
:102930002BB9DBB88BB87BEC7BB98FE98BB992E90B
:102940009BB972E8972E9BB8EAE9DE2EDBB807E662
:10295000E02EEBB87BE67BB987E78BB993E99BB9AF
:102960008DE7982E9BB8BBB96BB99FE6D92EDBB823
:1029700053E8E52EEBB8BBB96BB9DBB874E87BB9AB
:10298000BBB98BE68BB999E79BB9E6E99E2E9BB85C
:1029900005E7D02EDBB881E9E82EEBB87BB9BBB9EF
:1029A0007AE67BB9DBB8EBB885E88BB998E99BB9D7
:1029B0009CE6992E9BB85FE5D52EDBB87FE4E72E29
:1029C000EBB877E67BB984E38BB91BB994E49BB988
:1029D0005BB8EAE49E2E9BB8ABB8B5E3DB2EDBB860
:1029E0000CE3E02EEBB870E57BB9ABB8DBB8EBB825
:1029F00081E58BB9ABB81BB996E49BB993E6992EE8
:102A00009BB852E4D52EDBB8BBB88BB9ABB877E333
:102A1000E72EEBB8DBB8BBB872E57BB985E68BB9BE
:102A200099E39BB9ECE29E2E9BB8BCE1BB2EBBB8F0
:102A300004E3D02EDBB8ABB9FBB881E1E82EEBB8EC
:102A40007DE27BB987E18BB9CBB8FBB999E09BB943
:102A50005DE1952E9BB8CBB8FBB99BB97EE1B72E53
:102A6000BBB8CBB8FBB8E3E1DE2EDBB82BB8FFE098
:102A7000EF2EEBB8ABE2FA2EFBB8BBB8CBB874E0E4
:102A80007BB9EBB8FBB88FE18BB992E39BB9F6E069
:102A9000FBB989819A8101979A838983892B11F0E7
:102AA0000C943C0180E090E0892B11F40C942801F7
:0C2AB0000E9400000C941C01F894FFCF61
:00000001FF
