:100000000C94EB000C94FD000C94FD000C94FD008E
:100010000C94FD000C94FD000C94FD000C94FD006C
:100020000C94FD000C94FD000C94FD000C94FD005C
:100030000C94FD000C94FD000C94FD000C94FD004C
:100040000C94FF000C94FD000C94FD000C94FD003A
:100050000C94FD000C94FD000C94FD000C94FD002C
:100060000C94FD000C94FD001111111111111111CE
:100070001111111111111111111111111111111170
:100080001111111111111111111111111111111160
:100090001111111111111111111111111111111150
:1000A0001111111111111111111111111111111140
:1000B0001111111111111111111111111111111130
:1000C0001111111111111111111111111111111120
:1000D0001111111111111111111111111111111110
:1000E0001111111111111111111111111111111100
:1000F00011111111111111111111111111111111F0
:1001000011111111111111111111111111111111DF
:1001100011111111111111111111111111111111CF
:1001200011111111111111111111111111111111BF
:1001300011111111111111111111111111111111AF
:10014000111111111111111111111111111111119F
:1001500011111111111111111111111111111100A0
:10016000000000000000000000000000000000008F
:10017000000000000000000000000000000000007F
:10018000000000000000000000000000000000006F
:10019000000000000000000000000000000000005F
:1001A000000000000000000000000000000000004F
:1001B000000000000000000000000000000000003F
:1001C000000000000000000000000000000000002F
:1001D00000000000000011241FBECFEFD8E0DEBFFA
:1001E000CDBF21E0A0E0B1E001C01D92A930B2076F
:1001F000E1F70E9449010C94160F0C9400001F9225
:100200000F920FB60F9211242F933F938F939F93CA
:10021000AF93BF938091050190910601A0910701D2
:10022000B09108013091040123E0230F2D3720F411
:100230000196A11DB11D05C026E8230F0296A11D40
:10024000B11D209304018093050190930601A093B2
:100250000701B09308018091000190910101A091E4
:100260000201B09103010196A11DB11D809300010F
:1002700090930101A0930201B0930301BF91AF914C
:100280009F918F913F912F910F900FBE0F901F90D4
:100290001895789484B5826084BD84B5816084BDEE
:1002A00085B5826085BD85B5816085BD80916E0014
:1002B000816080936E001092810080918100826045
:1002C0008093810080918100816080938100809182
:1002D00080008160809380008091B1008460809371
:1002E000B1008091B00081608093B00080917A006D
:1002F000846080937A0080917A00826080937A0093
:1003000080917A00816080937A0080917A00806881
:1003100080937A001092C10087E084B980E187B9A8
:100320009FEF9AB915B888B91BB815B82FE531E019
:1003300086ED91E0F90141E0E63DF40721F04491BA
:1003400045B93196F8CF15B8EFE5F1E08E179F0764
:1003500021F0449145B93196F9CF15B8EFE5F1E0B8
:100360008E179F0721F0449145B93196F9CF15B802
:10037000EFE5F1E08E179F0721F0449145B93196E2
:10038000F9CF15B8EFE5F1E08E179F0721F0449102
:1003900045B93196F9CF15B8EFE5F1E08E179F0713
:1003A00021F0449145B93196F9CF15B8EFE5F1E068
:1003B0008E179F0721F0449145B93196F9CF15B8B2
:1003C000EFE5F1E08E179F0721F0449145B9319692
:1003D000F9CF15B8EFE5F1E08E179F0721F04491B2
:1003E00045B93196F9CF15B88217930731F0F90165
:1003F000449145B92F5F3F4FF7CF87E085B985B965
:1004000028E630E08FE591E0F90141E0EF35F407AF
:1004100021F0449145B93196F8CF47E045B9E8E677
:10042000F0E08E179F0721F0449145B93196F9CF3E
:1004300047E045B9E8E6F0E08E179F0721F04491C8
:1004400045B93196F9CF47E045B9E8E6F0E08E17B7
:100450009F0721F0449145B93196F9CF47E045B95E
:10046000E8E6F0E08E179F0721F0449145B93196F8
:10047000F9CF47E045B9E8E6F0E08E179F0721F095
:10048000449145B93196F9CF47E045B9E8E6F0E047
:100490008E179F0721F0449145B93196F9CF47E077
:1004A00045B9E8E6F0E08E179F0721F0449145B981
:1004B0003196F9CF47E045B9E8E6F0E08E179F079F
:1004C00021F0449145B93196F9CF47E045B9E8E6C6
:1004D000F0E08E179F0721F0449145B93196F9CF8E
:1004E00047E045B9E8E6F0E08E179F0721F0449118
:1004F00045B93196F9CF47E045B9E8E6F0E08E1707
:100500009F0721F0449145B93196F9CF47E045B9AD
:10051000E8E6F0E08E179F0721F0449145B9319647
:10052000F9CF47E045B9E8E6F0E08E179F0721F0E4
:10053000449145B93196F9CF47E045B9E8E6F0E096
:100540008E179F0721F0449145B93196F9CF47E0C6
:1005500045B9E8E6F0E08E179F0721F0449145B9D0
:100560003196F9CF47E045B9E8E6F0E08E179F07EE
:1005700021F0449145B93196F9CF47E045B9E8E615
:10058000F0E08E179F0721F0449145B93196F9CFDD
:1005900047E045B9E8E6F0E08E179F0721F0449167
:1005A00045B93196F9CF47E045B9E8E6F0E08E1756
:1005B0009F0721F0449145B93196F9CF47E045B9FD
:1005C000E8E6F0E08E179F0721F0449145B9319697
:1005D000F9CF47E045B9E8E6F0E08E179F0721F034
:1005E000449145B93196F9CF47E045B9E8E6F0E0E6
:1005F0008E179F0721F0449145B93196F9CF47E016
:1006000045B9E8E6F0E08E179F0721F0449145B91F
:100610003196F9CF47E045B9E8E6F0E08E179F073D
:1006200021F0449145B93196F9CF47E045B9E8E664
:10063000F0E08E179F0721F0449145B93196F9CF2C
:1006400047E045B9E8E6F0E08E179F0721F04491B6
:1006500045B93196F9CF47E045B9E8E6F0E08E17A5
:100660009F0721F0449145B93196F9CF47E045B94C
:10067000E8E6F0E08E179F0721F0449145B93196E6
:10068000F9CF47E045B98217930731F0F90144915A
:1006900045B92F5F3F4FF7CF94E0D92EC4E2D4E4A1
:1006A00014E604E824EAF22E34ECE32E7CE8772EFC
:1006B000E4E96E2EFCE95F2EACEA4A2EB4EB3B2E49
:1006C0008CEB282E18B8DBB8F4E1FBB92CE12BB980
:1006D000CBB94CE24BB984E38BB99CE39BB9DBB952
:1006E000ECE4EBB9F4E5FBB92CE52BB91BB94CE60E
:1006F0004BB984E78BB99CE79BB90BB97BB86BB856
:100700005BB8FBB84BB83BB82BB8EBB83CEC3BB98B
:1007100044ED4BB95CED5BB984EE8BB96CEE6BB913
:1007200024EF2BB97CEF7BB92BB99FEF9BB98BB929
:10073000EBB8FBB80BB91BB9DBB9CBB9DBB8DBB88D
:10074000CBB9DBB91BB90BB9FBB8EBB88BB99BB90B
:100750008BB9EBB8FBB80BB91BB9DBB9CBB9DBB8BC
:10076000CBB9DBB91BB90BB9FBB8EBB88BB99BB9EB
:100770007BB92BB96BB98BB95BB94BB93BB9EBB84A
:100780002BB83BB84BB8FBB85BB86BB87BB80BB9B0
:10079000ECE7EBB9F4E7FBB9ECE6EBB91BB9FCE528
:1007A000FBB9E4E5EBB9FCE4FBB9DBB9ECE3EBB98D
:1007B000F4E3FBB9ECE2EBB9CBB9FCE1FBB9E4E162
:1007C000EBB9ECE0EBB9DBB8CBB9DBB91BB90BB9D2
:1007D000FBB8EBB88BB99BB98BB9EBB8FBB80BB9CD
:1007E0001BB9DBB9CBB9DBB8DBB8CBB9DBB91BB90B
:1007F0000BB9FBB8EBB88BB99BB98BB9EBB8FBB8AD
:100800000BB91BB9DBB9CBB9DBB8DBB8F4E1FBB989
:10081000FCE1FBB9CBB9FCE2FBB9F4E3FBB9FCE3C7
:10082000FBB9DBB9FCE4FBB9F4E5FBB9FCE5FBB9CA
:100830001BB9FCE6FBB9F4E7FBB9FCE7FBB90BB964
:100840007BB86BB85BB8FBB84BB83BB82BB8EBB810
:100850003BB94BB95BB98BB96BB92BB97BB92BB928
:100860009BB98BB9EBB8FBB80BB91BB9DBB9CBB9EA
:10087000DBB8DBB8CBB9DBB91BB90BB9FBB8EBB84C
:100880008BB99BB98BB9EBB8FBB80BB91BB9DBB90A
:10089000CBB9DBB8CBB9DBB91BB90BB9FBB8EBB83B
:1008A0008BB99BB97BB92BB96BB98BB95BB94BB918
:1008B0003BB9EBB82BB83BB84BB8FBB85BB86BB8DF
:1008C0007BB80BB9FBB9F4E7FBB9FCE6FBB91BB984
:1008D000FCE5FBB9F4E5FBB9FCE4FBB9DBB9FCE3EF
:1008E000FBB9F4E3FBB9FCE2FBB9CBB9FCE1FBB922
:1008F000F4E1FBB9EBB9DBB8CBB9DBB91BB90BB988
:10090000FBB8EBB88BB99BB98BB9EBB8FBB80BB99B
:100910001BB9DBB9CBB9DBB8DBB8CBB9DBB91BB9D9
:100920000BB9FBB8EBB88BB99BB98BB9EBB8FBB87B
:100930000BB91BB9DBB9CBB9DBB8DBB8FBB9FCE150
:10094000FBB9CBB9FCE2FBB9F4E3FBB9FCE3FBB9BF
:10095000DBB9FCE4FBB9F4E5FBB9FCE5FBB91BB979
:10096000FCE6FBB9F4E7FBB9FCE7FBB90BB97BB8D4
:100970006BB85BB8FBB84BB83BB82BB8EBB83BB91E
:100980004BB95BB98BB96BB92BB97BB92BB99BB997
:100990008BB9EBB8FBB80BB91BB9DBB9CBB9DBB87A
:1009A000DBB8CBB9DBB91BB90BB9FBB8EBB88BB96A
:1009B0009BB98BB9EBB8FBB80BB91BB9DBB9CBB999
:1009C000DBB8CBB9DBB91BB90BB9FBB8EBB88BB94A
:1009D0009BB97BB92BB96BB98BB95BB94BB93BB937
:1009E000EBB82BB83BB84BB8FBB85BB86BB87BB86F
:1009F0000BB9FBB9F4E7FBB9FCE6FBB91BB9FCE5A5
:100A0000FBB9F4E5FBB9FCE4FBB9DBB9FCE3FBB9EA
:100A1000F4E3FBB9FCE2FBB9CBB9FCE1FBB9F4E1CF
:100A2000FBB9EBB9DBB8CBB9DBB91BB90BB9FBB878
:100A3000EBB88BB99BB98BB9EBB8FBB80BB91BB949
:100A4000DBB9CBB9DBB8DBB8CBB9DBB91BB90BB9B8
:100A5000FBB8EBB88BB99BB98BB9EBB8FBB80BB94A
:100A60001BB9DBB9CBB9DBB8DBB8FBB9FCE1FBB92F
:100A7000CBB9FCE2FBB9F4E3FBB9FCE3FBB9DBB9AE
:100A8000FCE4FBB9F4E5FBB9FCE5FBB91BB9FCE6FA
:100A9000FBB9F4E7FBB9FCE7FBB90BB97BB86BB862
:100AA0005BB8FBB84BB83BB82BB8EBB83BB94BB90C
:100AB0005BB98BB96BB92BB97BB92BB99BB98BB926
:100AC000EBB8FBB80BB91BB9DBB9CBB9DBB8DBB8FA
:100AD000CBB9DBB91BB90BB9FBB8EBB88BB99BB978
:100AE0008BB9EBB8FBB80BB91BB9DBB9CBB9DBB829
:100AF000CBB9DBB91BB90BB9FBB8EBB88BB99BB958
:100B00007BB92BB96BB98BB95BB94BB93BB9EBB8B6
:100B10002BB83BB84BB8FBB85BB86BB87BB80BB91C
:100B2000FBB9F4E7FBB9FCE6FBB91BB9FCE5FBB983
:100B3000F4E5FBB9FCE4FBB9DBB9FCE3FBB9F4E396
:100B4000FBB9FCE2FBB9CBB9FCE1FBB9F4E1FBB9C1
:100B5000EBB9DBB8CBB9DBB91BB90BB9FBB8EBB858
:100B60008BB99BB98BB9EBB8FBB80BB91BB9DBB927
:100B7000CBB9DBB8DBB8CBB9DBB91BB90BB9FBB868
:100B8000EBB88BB99BB98BB9EBB8FBB80BB91BB9F8
:100B9000DBB9CBB9DBB8DBB8FBB9FCE1FBB9CBB94E
:100BA000FCE2FBB9F4E3FBB9FCE3FBB9DBB9FCE421
:100BB000FBB9F4E5FBB9FCE5FBB91BB9FCE6FBB9F5
:100BC000F4E7FBB9FCE7FBB90BB97BB86BB85BB8D2
:100BD000FBB84BB83BB82BB8EBB83BB94BB95BB9DA
:100BE0008BB96BB92BB97BB92BB99BB98BB9EBB866
:100BF000FBB80BB91BB9DBB9CBB9DBB8DBB8CBB9E8
:100C0000DBB91BB90BB9FBB8EBB88BB99BB98BB986
:100C1000EBB8FBB80BB91BB9DBB9CBB9DBB8CBB9B7
:100C2000DBB91BB90BB9FBB8EBB88BB99BB97BB976
:100C30002BB96BB98BB95BB94BB93BB9EBB82BB8D6
:100C40003BB84BB8FBB85BB86BB87BB80BB9FBB91A
:100C500024E72BB94CE64BB91BB9FCE5FBB924E5FD
:100C60002BB94CE44BB9DBB9FCE3FBB924E32BB95A
:100C70004CE24BB9CBB9FCE1FBB924E12BB9EBB9A0
:100C8000DBB8CBB9DBB91BB90BB9FBB8EBB88BB987
:100C90009BB98BB9EBB8FBB80BB91BB9DBB9CBB9B6
:100CA000DBB8DBB8CBB9DBB91BB90BB9FBB8EBB818
:100CB0008BB99BB98BB9EBB8FBB80BB91BB9DBB9D6
:100CC000CBB9DBB88BB9EBB8FBB80BB91BB9DBB947
:100CD000CBB9DBB8DBB8CBB9DBB91BB90BB9FBB807
:100CE000EBB88BB99BB98BB9EBB8FBB80BB91BB997
:100CF000DBB9CBB9DBB8CBB9DBB91BB90BB9FBB8E6
:100D0000EBB88BB99BB9CBB9DBB91BB90BB9FBB845
:100D1000EBB88BB99BB98BB9EBB8FBB80BB91BB966
:100D2000DBB9CBB9DBB8DBB8CBB9DBB91BB90BB9D5
:100D3000FBB8EBB88BB99BB98BB9EBB8FBB80BB967
:100D40001BB9DBB9CBB9DBB8DBB88BB9EBB8FBB8F7
:100D50000BB91BB9DBB9CBB9DBB8DBB8CBB9DBB9A5
:100D60001BB90BB9FBB8EBB88BB99BB98BB9EBB816
:100D7000FBB80BB91BB9DBB9CBB9DBB8CBB9DBB965
:100D80001BB90BB9FBB8EBB88BB99BB9CBB9DBB9C5
:100D90001BB90BB9FBB8EBB88BB99BB98BB9EBB8E6
:100DA000FBB80BB91BB9DBB9CBB9DBB8DBB8CBB936
:100DB000DBB91BB90BB9FBB8EBB88BB99BB98BB9D5
:100DC000EBB8FBB80BB91BB9DBB9CBB9DBB88BB946
:100DD000EBB8FBB80BB91BB9DBB9CBB9DBB8DBB8E7
:100DE000CBB9DBB91BB90BB9FBB8EBB88BB99BB965
:100DF0008BB9EBB8FBB80BB91BB9DBB9CBB9DBB816
:100E0000CBB9DBB91BB90BB9FBB8EBB88BB99BB944
:100E1000CBB9DBB91BB90BB9FBB8EBB88BB99BB934
:100E20008BB9EBB8FBB80BB91BB9DBB9CBB9DBB8E5
:100E3000DBB8CBB9DBB91BB90BB9FBB8EBB88BB9D5
:100E40009BB98BB9EBB8FBB80BB91BB9DBB9CBB904
:100E5000DBB88BB9EBB8FBB80BB91BB9DBB9CBB9B5
:100E6000DBB8DBB8CBB9DBB91BB90BB9FBB8EBB856
:100E70008BB99BB98BB9EBB8FBB80BB91BB9DBB914
:100E8000CBB9DBB8CBB9DBB91BB90BB9FBB8EBB845
:100E90008BB99BB9CBB9DBB91BB90BB9FBB8EBB8B4
:100EA0008BB99BB98BB9EBB8FBB80BB91BB9DBB9E4
:100EB000CBB9DBB8DBB8CBB9DBB91BB90BB9FBB825
:100EC000EBB88BB99BB98BB9EBB8FBB80BB91BB9B5
:100ED000DBB9CBB9DBB88BB9EBB8FBB80BB91BB935
:100EE000DBB9CBB9DBB8DBB8CBB9DBB91BB90BB914
:100EF000FBB8EBB88BB99BB98BB9EBB8FBB80BB9A6
:100F00001BB9DBB9CBB9DBB8CBB9DBB91BB90BB9B2
:100F1000FBB8EBB88BB99BB9CBB9DBB91BB90BB933
:100F2000FBB8EBB88BB99BB98BB9EBB8FBB80BB975
:100F30001BB9DBB9CBB9DBB8DBB8CBB9DBB91BB9B3
:100F40000BB9FBB8EBB88BB99BB98BB9EBB8FBB855
:100F50000BB91BB9DBB9CBB9DBB81BB8DBB8CBB964
:100F6000DBB91BB90BB9FBB8EBB88BB99BB98BB923
:100F7000EBB8FBB80BB91BB9DBB9CBB9DBB81BB805
:100F800020E1822E8BB830E2932E9BB840E3A42E52
:100F9000ABB840E44BB950E5B52EBBB860E6C62E01
:100FA000CBB8B0E7BBB930E83BB9A0E9ABB9F0EAE0
:100FB000FBB920EB2BB9E0ECEBB970ED7BB960EE3F
:100FC0006BB950EF5BB99BB95BB96BB97BB9EBB946
:100FD0002BB9FBB9ABB93BB9BBB9CBB8BBB84BB9B3
:100FE000ABB89BB88BB81BB84BB93BB92BB95BB945
:100FF0006BB92BB93BB94BB91BB89BB98BB9EBB8E3
:10100000FBB80BB91BB9DBB9CBB9DBB81BB8DBB884
:10101000CBB9DBB91BB90BB9FBB8EBB88BB99BB932
:101020005BB96BB97BB9EBB92BB9FBB9ABB93BB9C0
:10103000BBB9CBB8BBB84BB9ABB89BB88BB81BB876
:101040008BB89BB8ABB84BB9BBB8CBB8BBB93BB945
:10105000ABB9FBB92BB9EBB97BB96BB95BB96BB960
:101060002BB93BB94BB91BB84BB93BB92BB95BB9E1
:101070009BB98BB9EBB8FBB80BB91BB9DBB9CBB9D2
:10108000DBB81BB8DBB8CBB9DBB91BB90BB9FBB804
:10109000EBB88BB99BB95BB96BB97BB9EBB92BB921
:1010A000FBB9ABB93BB9BBB9CBB8BBB84BB9ABB863
:1010B0009BB88BB81BB88BB89BB8ABB84BB9BBB857
:1010C000CBB8BBB93BB9ABB9FBB92BB9EBB97BB961
:1010D0006BB95BB96BB92BB93BB94BB91BB84BB901
:1010E0003BB92BB95BB99BB98BB9EBB8FBB80BB962
:1010F0001BB9DBB9CBB9DBB81BB8DBB8CBB9DBB9F3
:101100001BB90BB9FBB8EBB88BB99BB95BB96BB921
:101110007BB9EBB92BB9FBB9ABB93BB9BBB9CBB810
:10112000BBB84BB9ABB89BB88BB81BB88BB89BB8E6
:10113000ABB84BB9BBB8CBB8BBB93BB9ABB9FBB9D2
:101140002BB9EBB97BB96BB95BB96BB92BB93BB9AF
:101150004BB91BB84BB93BB92BB95BB99BB98BB930
:10116000EBB8FBB80BB91BB9DBB9CBB9DBB81BB813
:10117000DBB8CBB9DBB91BB90BB9FBB8EBB88BB992
:101180009BB95BB96BB97BB9EBB92BB9FBB9ABB9FF
:101190003BB9BBB9CBB8BBB84BB9ABB89BB88BB8F4
:1011A0001BB88BB89BB8ABB84BB9BBB8CBB8BBB905
:1011B0003BB9ABB9FBB92BB9EBB97BB96BB95BB92F
:1011C0006BB92BB93BB94BB91BB84BB93BB92BB970
:1011D0005BB99BB98BB9EBB8FBB80BB91BB9DBB9E1
:1011E000CBB9DBB81BB8DBB8CBB9DBB91BB90BB9D2
:1011F000FBB8EBB88BB99BB95BB96BB97BB9EBB9F1
:101200002BB9FBB9ABB93BB9BBB9CBB8BBB84BB980
:10121000ABB89BB88BB81BB88BB89BB8ABB84BB905
:10122000BBB8CBB8BBB93BB9ABB9FBB92BB9EBB9C0
:101230007BB96BB95BB96BB92BB93BB94BB91BB86F
:101240004BB93BB92BB95BB99BB98BB9EBB8FBB8C0
:101250000BB91BB9DBB9CBB9DBB81BB8DBB8CBB961
:10126000DBB91BB90BB9FBB8EBB88BB99BB95BB950
:101270006BB97BB9EBB92BB9FBB9ABB93BB9BBB90E
:10128000CBB8BBB84BB9ABB89BB88BB81BB88BB855
:101290009BB8ABB84BB9BBB8CBB8BBB93BB9ABB9D2
:1012A000FBB92BB9EBB97BB96BB95BB96BB92BB98E
:1012B0003BB94BB91BB84BB93BB92BB95BB99BB91F
:1012C0008BB9EBB8FBB80BB91BB9DBB9CBB9DBB841
:1012D0001BB8DBB8CBB9DBB91BB90BB9FBB8EBB8A2
:1012E0008BB99BB95BB96BB97BB9EBB92BB9FBB9BE
:1012F000ABB93BB9BBB9CBB8BBB84BB9ABB89BB872
:101300008BB81BB88BB89BB8ABB84BB9BBB8CBB8D4
:10131000BBB93BB9ABB9FBB92BB9EBB97BB96BB96D
:101320005BB96BB92BB93BB94BB91BB84BB93BB9DE
:101330002BB95BB99BB98BB9EBB8FBB80BB91BB92F
:10134000DBB9CBB9DBB81BB8DBB8CBB9DBB91BB9A0
:101350000BB9FBB8EBB88BB99BB95BB96BB97BB96F
:10136000EBB92BB9FBB9ABB93BB9BBB9CBB8BBB87F
:101370004BB9ABB89BB88BB81BB88BB89BB8ABB8A4
:101380004BB9BBB8CBB8BBB93BB9ABB9FBB92BB9FF
:10139000EBB97BB96BB95BB96BB92BB93BB94BB93D
:1013A0001BB84BB93BB92BB95BB99BB98BB9EBB83F
:1013B000FBB80BB91BB9DBB9CBB9DBB81BB8DBB8D1
:1013C000CBB9DBB91BB90BB9FBB8EBB88BB99BB97F
:1013D0005BB96BB97BB9EBB92BB9FBB9ABB93BB90D
:1013E000BBB9CBB8BBB84BB9ABB89BB88BB81BB8C3
:1013F0008BB89BB8ABB84BB9BBB8CBB8BBB93BB992
:10140000ABB9FBB92BB9EBB97BB96BB95BB96BB9AC
:101410002BB93BB94BB91BB84BB93BB92BB95BB92D
:101420009BB98BB9EBB8FBB80BB91BB9DBB9CBB91E
:10143000DBB81BB8DBB8CBB9DBB91BB90BB9FBB850
:10144000EBB88BB99BB95BB96BB97BB9EBB92BB96D
:10145000FBB9ABB93BB9BBB9CBB8BBB84BB9ABB8AF
:101460009BB88BB81BB88BB89BB8ABB84BB9BBB8A3
:10147000CBB8BBB93BB9ABB9FBB92BB9EBB97BB9AD
:101480006BB95BB96BB92BB93BB94BB91BB84BB94D
:101490003BB92BB95BB99BB98BB9EBB8FBB80BB9AE
:1014A0001BB9DBB9CBB9DBB81BB8DBB8CBB9DBB93F
:1014B0001BB90BB9FBB8EBB88BB99BB95BB96BB96E
:1014C0007BB9EBB92BB9FBB9ABB93BB9BBB9CBB85D
:1014D000BBB84BB9ABB89BB88BB81BB88BB89BB833
:1014E000ABB84BB9BBB8CBB8BBB93BB9ABB9FBB91F
:1014F0002BB9EBB97BB96BB95BB96BB92BB93BB9FC
:101500004BB91BB84BB93BB92BB95BB99BB98BB97C
:10151000EBB8FBB80BB91BB9DBB9CBB9DBB81BB85F
:10152000DBB8CBB9DBB91BB90BB9FBB8EBB88BB9DE
:101530009BB95BB96BB97BB9EBB92BB9FBB9ABB94B
:101540003BB9BBB9CBB8BBB84BB9ABB89BB88BB840
:101550001BB88BB89BB8ABB84BB9BBB8CBB8BBB951
:101560003BB9ABB9FBB92BB9EBB97BB96BB95BB97B
:101570006BB92BB93BB94BB91BB84BB93BB92BB9BC
:101580005BB98BB9EBB8FBB80BB91BB9DBB9CBB9FD
:10159000DBB8DBB8CBB9DBB91BB90BB9FBB8EBB81F
:1015A0008BB99BB98BB9EBB8FBB80BB91BB9DBB9DD
:1015B000CBB9DBB8CBB9DBB91BB90BB9FBB8EBB80E
:1015C0008BB99BB9CBB9DBB91BB90BB9FBB8EBB87D
:1015D0008BB99BB98BB9EBB8FBB80BB91BB9DBB9AD
:1015E000CBB9DBB8DBB8CBB9DBB91BB90BB9FBB8EE
:1015F000EBB88BB99BB98BB9EBB8FBB80BB91BB97E
:10160000DBB9CBB9DBB8DBB88BB9EBB8FBB80BB93E
:101610001BB9DBB9CBB9DBB8DBB8CBB9DBB91BB9CC
:101620000BB9FBB8EBB88BB99BB98BB9EBB8FBB86E
:101630000BB91BB9DBB9CBB9DBB8CBB9DBB91BB97B
:101640000BB9FBB8EBB88BB99BB9CBB9DBB91BB9FC
:101650000BB9FBB8EBB88BB99BB98BB9EBB8FBB83E
:101660000BB91BB9DBB9CBB9DBB8DBB8CBB9DBB98C
:101670001BB90BB9FBB8EBB88BB99BB98BB9EBB8FD
:10168000FBB80BB91BB9DBB9CBB9DBB88BB9EBB87D
:10169000FBB80BB91BB9DBB9CBB9DBB8DBB8CBB93D
:1016A000DBB91BB90BB9FBB8EBB88BB99BB98BB9DC
:1016B000EBB8FBB80BB91BB9DBB9CBB9DBB8CBB90D
:1016C000DBB91BB90BB9FBB8EBB88BB99BB9CBB97C
:1016D000DBB91BB90BB9FBB8EBB88BB99BB98BB9AC
:1016E000EBB8FBB80BB91BB9DBB9CBB9DBB8DBB8CE
:1016F000CBB9DBB91BB90BB9FBB8EBB88BB99BB94C
:101700008BB9EBB8FBB80BB91BB9DBB9CBB9DBB8FC
:101710008BB9EBB8FBB80BB91BB9DBB9CBB9DBB8EC
:10172000DBB8CBB9DBB91BB90BB9FBB8EBB88BB9DC
:101730009BB98BB9EBB8FBB80BB91BB9DBB9CBB90B
:10174000DBB8CBB9DBB91BB90BB9FBB8EBB88BB9BC
:101750009BB9CBB9DBB91BB90BB9FBB8EBB88BB9EB
:101760009BB98BB9EBB8FBB80BB91BB9DBB9CBB9DB
:10177000DBB8DBB8CBB9DBB91BB90BB9FBB8EBB83D
:101780008BB99BB98BB9EBB8FBB80BB91BB9DBB9FB
:10179000CBB9DBB88BB9EBB8FBB80BB91BB9DBB96C
:1017A000CBB9DBB8DBB8CBB9DBB91BB90BB9FBB82C
:1017B000EBB88BB99BB98BB9EBB8FBB80BB91BB9BC
:1017C000DBB9CBB9DBB8CBB9DBB91BB90BB9FBB80B
:1017D000EBB88BB99BB9CBB9DBB91BB90BB9FBB86B
:1017E000EBB88BB99BB98BB9EBB8FBB80BB91BB98C
:1017F000DBB9CBB9DBB8DBB8CBB9DBB91BB90BB9FB
:10180000FBB8EBB88BB99BB98BB9EBB8FBB80BB98C
:101810001BB9DBB9CBB9DBB81BB8DBB8CBB9DBB9CB
:101820001BB90BB9FBB8EBB88BB99BB98BB9EBB84B
:10183000FBB80BB91BB9DBB9CBB9DBB81BB88BB89C
:101840009BB8ABB84BB9BBB8CBB8BBB93BB9ABB91C
:10185000FBB92BB9EBB97BB96BB95BB99BB95BB978
:101860006BB97BB9EBB92BB9FBB9ABB93BB9BBB918
:10187000CBB8BBB84BB9ABB89BB88BB81BB84BB99E
:101880003BB92BB95BB96BB92BB93BB94BB91BB899
:101890009BB98BB9EBB8FBB80BB91BB9DBB9CBB9AA
:1018A000DBB81BB8DBB8CBB9DBB91BB90BB9FBB8DC
:1018B000EBB88BB99BB95BB96BB97BB9EBB92BB9F9
:1018C000FBB9ABB93BB9BBB9CBB8BBB84BB9ABB83B
:1018D0009BB88BB81BB88BB89BB8ABB84BB9BBB82F
:1018E000CBB8BBB93BB9ABB9FBB92BB9EBB97BB939
:1018F0006BB95BB96BB92BB93BB94BB91BB84BB9D9
:101900003BB92BB95BB99BB98BB9EBB8FBB80BB939
:101910001BB9DBB9CBB9DBB81BB8DBB8CBB9DBB9CA
:101920001BB90BB9FBB8EBB88BB99BB95BB96BB9F9
:101930007BB9EBB92BB9FBB9ABB93BB9BBB9CBB8E8
:10194000BBB84BB9ABB89BB88BB81BB88BB89BB8BE
:10195000ABB84BB9BBB8CBB8BBB93BB9ABB9FBB9AA
:101960002BB9EBB97BB96BB95BB96BB92BB93BB987
:101970004BB91BB84BB93BB92BB95BB99BB98BB908
:10198000EBB8FBB80BB91BB9DBB9CBB9DBB81BB8EB
:10199000DBB8CBB9DBB91BB90BB9FBB8EBB88BB96A
:1019A0009BB95BB96BB97BB9EBB92BB9FBB9ABB9D7
:1019B0003BB9BBB9CBB8BBB84BB9ABB89BB88BB8CC
:1019C0001BB88BB89BB8ABB84BB9BBB8CBB8BBB9DD
:1019D0003BB9ABB9FBB92BB9EBB97BB96BB95BB907
:1019E0006BB92BB93BB94BB91BB84BB93BB92BB948
:1019F0005BB99BB98BB9EBB8FBB80BB91BB9DBB9B9
:101A0000CBB9DBB81BB8DBB8CBB9DBB91BB90BB9A9
:101A1000FBB8EBB88BB99BB95BB96BB97BB9EBB9C8
:101A20002BB9FBB9ABB93BB9BBB9CBB8BBB84BB958
:101A3000ABB89BB88BB81BB88BB89BB8ABB84BB9DD
:101A4000BBB8CBB8BBB93BB9ABB9FBB92BB9EBB998
:101A50007BB96BB95BB96BB92BB93BB94BB91BB847
:101A60004BB93BB92BB95BB99BB98BB9EBB8FBB898
:101A70000BB91BB9DBB9CBB9DBB81BB8DBB8CBB939
:101A8000DBB91BB90BB9FBB8EBB88BB99BB95BB928
:101A90006BB97BB9EBB92BB9FBB9ABB93BB9BBB9E6
:101AA000CBB8BBB84BB9ABB89BB88BB81BB88BB82D
:101AB0009BB8ABB84BB9BBB8CBB8BBB93BB9ABB9AA
:101AC000FBB92BB9EBB97BB96BB95BB96BB92BB966
:101AD0003BB94BB91BB84BB93BB92BB95BB99BB9F7
:101AE0008BB9EBB8FBB80BB91BB9DBB9CBB9DBB819
:101AF0001BB8DBB8CBB9DBB91BB90BB9FBB8EBB87A
:101B00008BB99BB95BB96BB97BB9EBB92BB9FBB995
:101B1000ABB93BB9BBB9CBB8BBB84BB9ABB89BB849
:101B20008BB81BB88BB89BB8ABB84BB9BBB8CBB8AC
:101B3000BBB93BB9ABB9FBB92BB9EBB97BB96BB945
:101B40005BB96BB92BB93BB94BB91BB84BB93BB9B6
:101B50002BB95BB99BB98BB9EBB8FBB80BB91BB907
:101B6000DBB9CBB9DBB81BB8DBB8CBB9DBB91BB978
:101B70000BB9FBB8EBB88BB99BB95BB96BB97BB947
:101B8000EBB92BB9FBB9ABB93BB9BBB9CBB8BBB857
:101B90004BB9ABB89BB88BB81BB88BB89BB8ABB87C
:101BA0004BB9BBB8CBB8BBB93BB9ABB9FBB92BB9D7
:101BB000EBB97BB96BB95BB96BB92BB93BB94BB915
:101BC0001BB84BB93BB92BB95BB99BB98BB9EBB817
:101BD000FBB80BB91BB9DBB9CBB9DBB81BB8DBB8A9
:101BE000CBB9DBB91BB90BB9FBB8EBB88BB99BB957
:101BF0005BB96BB97BB9EBB92BB9FBB9ABB93BB9E5
:101C0000BBB9CBB8BBB84BB9ABB89BB88BB81BB89A
:101C10008BB89BB8ABB84BB9BBB8CBB8BBB93BB969
:101C2000ABB9FBB92BB9EBB97BB96BB95BB96BB984
:101C30002BB93BB94BB91BB84BB93BB92BB95BB905
:101C40009BB98BB9EBB8FBB80BB91BB9DBB9CBB9F6
:101C5000DBB81BB8DBB8CBB9DBB91BB90BB9FBB828
:101C6000EBB88BB99BB95BB96BB97BB9EBB92BB945
:101C7000FBB9ABB93BB9BBB9CBB8BBB84BB9ABB887
:101C80009BB88BB81BB88BB89BB8ABB84BB9BBB87B
:101C9000CBB8BBB93BB9ABB9FBB92BB9EBB97BB985
:101CA0006BB95BB96BB92BB93BB94BB91BB84BB925
:101CB0003BB92BB95BB99BB98BB9EBB8FBB80BB986
:101CC0001BB9DBB9CBB9DBB81BB8DBB8CBB9DBB917
:101CD0001BB90BB9FBB8EBB88BB99BB95BB96BB946
:101CE0007BB9EBB92BB9FBB9ABB93BB9BBB9CBB835
:101CF000BBB84BB9ABB89BB88BB81BB88BB89BB80B
:101D0000ABB84BB9BBB8CBB8BBB93BB9ABB9FBB9F6
:101D10002BB9EBB97BB96BB95BB96BB92BB93BB9D3
:101D20004BB91BB84BB93BB92BB95BB99BB98BB954
:101D3000EBB8FBB80BB91BB9DBB9CBB9DBB81BB837
:101D4000DBB8CBB9DBB91BB90BB9FBB8EBB88BB9B6
:101D50009BB95BB96BB97BB9EBB92BB9FBB9ABB923
:101D60003BB9BBB9CBB8BBB84BB9ABB89BB88BB818
:101D70001BB88BB89BB8ABB84BB9BBB8CBB8BBB929
:101D80003BB9ABB9FBB92BB9EBB97BB96BB95BB953
:101D90006BB92BB93BB94BB91BB84BB93BB92BB994
:101DA0005BB99BB98BB9EBB8FBB80BB91BB9DBB905
:101DB000CBB9DBB81BB8DBB8CBB9DBB91BB90BB9F6
:101DC000FBB8EBB88BB99BB95BB96BB97BB9EBB915
:101DD0002BB9FBB9ABB93BB9BBB9CBB8BBB84BB9A5
:101DE000ABB89BB88BB81BB88BB89BB8ABB84BB92A
:101DF000BBB8CBB8BBB93BB9ABB9FBB92BB9EBB9E5
:101E00007BB96BB95BB96BB92BB93BB94BB91BB893
:101E10004BB93BB92BB95BB980E090E0892B11F449
:101E20000C9462030E9400000C945603F894FFCFB8
:00000001FF
