:100000000C94EB000C94FD000C94FD000C94FD008E
:100010000C94FD000C94FD000C94FD000C94FD006C
:100020000C94FD000C94FD000C94FD000C94FD005C
:100030000C94FD000C94FD000C94FD000C94FD004C
:100040000C94FF000C94FD000C94FD000C94FD003A
:100050000C94FD000C94FD000C94FD000C94FD002C
:100060000C94FD000C94FD001111111111111111CE
:100070001111111111111111111111111111111170
:100080001111111111111111111111111111111160
:100090001111111111111111111111111111111150
:1000A0001111111111111111111111111111111140
:1000B0001111111111111111111111111111111130
:1000C0001111111111111111111111111111111120
:1000D0001111111111111111111111111111111110
:1000E0001111111111111111111111111111111100
:1000F00011111111111111111111111111111111F0
:1001000011111111111111111111111111111111DF
:1001100011111111111111111111111111111111CF
:1001200011111111111111111111111111111111BF
:1001300011111111111111111111111111111111AF
:10014000111111111111111111111111111111119F
:1001500011111111111111111111111111111100A0
:10016000000000000000000000000000000000008F
:10017000000000000000000000000000000000007F
:10018000000000000000000000000000000000006F
:10019000000000000000000000000000000000005F
:1001A000000000000000000000000000000000004F
:1001B000000000000000000000000000000000003F
:1001C000000000000000000000000000000000002F
:1001D00000000000000011241FBECFEFD8E0DEBFFA
:1001E000CDBF21E0A0E0B1E001C01D92A930B2076F
:1001F000E1F70E9449010C947A040C9400001F92CC
:100200000F920FB60F9211242F933F938F939F93CA
:10021000AF93BF938091050190910601A0910701D2
:10022000B09108013091040123E0230F2D3720F411
:100230000196A11DB11D05C026E8230F0296A11D40
:10024000B11D209304018093050190930601A093B2
:100250000701B09308018091000190910101A091E4
:100260000201B09103010196A11DB11D809300010F
:1002700090930101A0930201B0930301BF91AF914C
:100280009F918F913F912F910F900FBE0F901F90D4
:100290001895789484B5826084BD84B5816084BDEE
:1002A00085B5826085BD85B5816085BD80916E0014
:1002B000816080936E001092810080918100826045
:1002C0008093810080918100816080938100809182
:1002D00080008160809380008091B1008460809371
:1002E000B1008091B00081608093B00080917A006D
:1002F000846080937A0080917A00826080937A0093
:1003000080917A00816080937A0080917A00806881
:1003100080937A001092C10087E084B980E187B9A8
:100320009FEF9AB915B888B91BB815B82FE531E019
:1003300086ED91E0F90141E0E63DF40721F04491BA
:1003400045B93196F8CF15B8EFE5F1E08E179F0764
:1003500021F0449145B93196F9CF15B8EFE5F1E0B8
:100360008E179F0721F0449145B93196F9CF15B802
:10037000EFE5F1E08E179F0721F0449145B93196E2
:10038000F9CF15B8EFE5F1E08E179F0721F0449102
:1003900045B93196F9CF15B8EFE5F1E08E179F0713
:1003A00021F0449145B93196F9CF15B8EFE5F1E068
:1003B0008E179F0721F0449145B93196F9CF15B8B2
:1003C000EFE5F1E08E179F0721F0449145B9319692
:1003D000F9CF15B8EFE5F1E08E179F0721F04491B2
:1003E00045B93196F9CF15B88217930731F0F90165
:1003F000449145B92F5F3F4FF7CF87E085B985B965
:1004000028E630E08FE591E0F90141E0EF35F407AF
:1004100021F0449145B93196F8CF47E045B9E8E677
:10042000F0E08E179F0721F0449145B93196F9CF3E
:1004300047E045B9E8E6F0E08E179F0721F04491C8
:1004400045B93196F9CF47E045B9E8E6F0E08E17B7
:100450009F0721F0449145B93196F9CF47E045B95E
:10046000E8E6F0E08E179F0721F0449145B93196F8
:10047000F9CF47E045B9E8E6F0E08E179F0721F095
:10048000449145B93196F9CF47E045B9E8E6F0E047
:100490008E179F0721F0449145B93196F9CF47E077
:1004A00045B9E8E6F0E08E179F0721F0449145B981
:1004B0003196F9CF47E045B9E8E6F0E08E179F079F
:1004C00021F0449145B93196F9CF47E045B9E8E6C6
:1004D000F0E08E179F0721F0449145B93196F9CF8E
:1004E00047E045B9E8E6F0E08E179F0721F0449118
:1004F00045B93196F9CF47E045B9E8E6F0E08E1707
:100500009F0721F0449145B93196F9CF47E045B9AD
:10051000E8E6F0E08E179F0721F0449145B9319647
:10052000F9CF47E045B9E8E6F0E08E179F0721F0E4
:10053000449145B93196F9CF47E045B9E8E6F0E096
:100540008E179F0721F0449145B93196F9CF47E0C6
:1005500045B9E8E6F0E08E179F0721F0449145B9D0
:100560003196F9CF47E045B9E8E6F0E08E179F07EE
:1005700021F0449145B93196F9CF47E045B9E8E615
:10058000F0E08E179F0721F0449145B93196F9CFDD
:1005900047E045B9E8E6F0E08E179F0721F0449167
:1005A00045B93196F9CF47E045B9E8E6F0E08E1756
:1005B0009F0721F0449145B93196F9CF47E045B9FD
:1005C000E8E6F0E08E179F0721F0449145B9319697
:1005D000F9CF47E045B9E8E6F0E08E179F0721F034
:1005E000449145B93196F9CF47E045B9E8E6F0E0E6
:1005F0008E179F0721F0449145B93196F9CF47E016
:1006000045B9E8E6F0E08E179F0721F0449145B91F
:100610003196F9CF47E045B9E8E6F0E08E179F073D
:1006200021F0449145B93196F9CF47E045B9E8E664
:10063000F0E08E179F0721F0449145B93196F9CF2C
:1006400047E045B9E8E6F0E08E179F0721F04491B6
:1006500045B93196F9CF47E045B9E8E6F0E08E17A5
:100660009F0721F0449145B93196F9CF47E045B94C
:10067000E8E6F0E08E179F0721F0449145B93196E6
:10068000F9CF47E045B98217930731F0F90144915A
:1006900045B92F5F3F4FF7CFC0E0D0E0F89418B8CE
:1006A00080E08BB98BB98BB990E8980F9BB99BB957
:1006B0009BB98BB98BB99BB99BB99BB98BB98BB9DA
:1006C0008BB99BB99BB99BB98BB98BB98BB99BB9CA
:1006D0009BB99BB98BB98BB99BB99BB99BB98BB9AA
:1006E0008BB98BB99BB99BB99BB98BB98BB98BB9BA
:1006F0009BB99BB99BB98BB98BB99BB99BB99BB97A
:100700008BB98BB98BB99BB99BB99BB98BB98BB999
:100710008BB99BB99BB99BB98BB98BB99BB99BB969
:100720009BB98BB98BB98BB99BB99BB99BB924E0A9
:10073000280F2BB92BB92BB994E8980F9BB99BB90B
:100740009BB92BB92BB99BB99BB99BB92BB92BB9C9
:100750002BB99BB99BB99BB92BB92BB92BB99BB9B9
:100760009BB99BB92BB92BB99BB99BB99BB92BB939
:100770002BB92BB99BB99BB99BB92BB92BB92BB909
:100780009BB99BB99BB92BB92BB99BB99BB99BB9A9
:100790002BB92BB92BB99BB99BB99BB92BB92BB9E9
:1007A0002BB99BB99BB99BB92BB92BB99BB99BB9F9
:1007B0009BB92BB92BB92BB99BB99BB99BB928E035
:1007C000280F2BB92BB92BB998E8980F9BB99BB977
:1007D0009BB92BB92BB99BB99BB99BB92BB92BB939
:1007E0002BB99BB99BB99BB92BB92BB92BB99BB929
:1007F0009BB99BB92BB92BB99BB99BB99BB92BB9A9
:100800002BB92BB99BB99BB99BB92BB92BB92BB978
:100810009BB99BB99BB92BB92BB99BB99BB99BB918
:100820002BB92BB92BB99BB99BB99BB92BB92BB958
:100830002BB99BB99BB99BB92BB92BB99BB99BB968
:100840009BB92BB92BB92BB99BB99BB99BB92CE0A0
:10085000280F2BB92BB92BB99CE8980F9BB99BB9E2
:100860009BB92BB92BB99BB99BB99BB92BB92BB9A8
:100870002BB99BB99BB99BB92BB92BB92BB99BB998
:100880009BB99BB92BB92BB99BB99BB99BB92BB918
:100890002BB92BB99BB99BB99BB92BB92BB92BB9E8
:1008A0009BB99BB99BB92BB92BB99BB99BB99BB988
:1008B0002BB92BB92BB99BB99BB99BB92BB92BB9C8
:1008C0002BB99BB99BB99BB92BB92BB99BB99BB9D8
:1008D0009BB92BB92BB92BB99BB99BB99BB92BB938
:1008E000805F803809F0DDCE209709F4D7CE0E94D2
:0808F0000000D4CEF894FFCF04
:00000001FF
