:100000000C9434000C9446000C9446000C9446006A
:100010000C9446000C9446000C9446000C94460048
:100020000C9446000C9446000C9446000C94460038
:100030000C9446000C9446000C9446000C94460028
:100040000C946D000C9446000C9446000C944600F1
:100050000C9446000C9446000C9446000C94460008
:100060000C9446000C94460011241FBECFEFD8E03C
:10007000DEBFCDBF21E0A0E0B1E001C01D92A930FC
:10008000B207E1F70E94B7000C945E050C940000E3
:100090003FB7F8948091050190910601A091070166
:1000A000B091080126B5A89B05C02F3F19F0019615
:1000B000A11DB11D3FBFBA2FA92F982F8827820FEE
:1000C000911DA11DB11DBC01CD0142E0660F771F3E
:1000D000881F991F4A95D1F708951F920F920FB666
:1000E0000F9211242F933F938F939F93AF93BF93BE
:1000F0008091010190910201A0910301B09104014E
:100100003091000123E0230F2D3720F40196A11D2B
:10011000B11D05C026E8230F0296A11DB11D209335
:1001200000018093010190930201A0930301B09319
:1001300004018091050190910601A0910701B09101
:1001400008010196A11DB11D809305019093060140
:10015000A0930701B0930801BF91AF919F918F9138
:100160003F912F910F900FBE0F901F901895CF9336
:10017000DF9300D0CDB7DEB7789484B5826084BDBC
:1001800084B5816084BD85B5826085BD85B581609B
:1001900085BD80916E00816080936E001092810019
:1001A00080918100826080938100809181008160D4
:1001B0008093810080918000816080938000809195
:1001C000B10084608093B1008091B0008160809321
:1001D000B00080917A00846080937A0080917A00E8
:1001E000826080937A0080917A00816080937A00A7
:1001F00080917A00806880937A001092C1008FEF1E
:100200008AB98FE087B914B818B898E79BB988B94C
:100210000E9448006B017C010E944800DC01CB0178
:100220008C199D09AE09BF09883E9340A105B1050F
:1002300098F3BCEF2B2E9CED24ED3CEC44EC5CEBF6
:1002400064EB7CEAE4EAACEDB5E018B81197E9F7A5
:100250001FE018B9A8E2B0E0BA83A9838CE9782E30
:10026000F4E98F2EACE89A2EB4E8AB2E1CE7B12E41
:1002700004E7C02E8CE6D82EF4E6EF2E8CE5A4E53C
:10028000FA2EBCE4A4E4FCE30FE008B908B908B90D
:100290001FE11BB902EE010F0BB91BB90BB91BB95A
:1002A0000BB91BB90BB91BB90BB91BB90BB91BB9EE
:1002B0000BB91BB90BB9185F173059F72BB814EFEE
:1002C0001BB90CEE0BB914EE1BB99BB92BB93BB99A
:1002D0004BB95BB96BB97BB9EBB97BB88BB89BB841
:1002E000ABB8BBB8CBB8DBB8EBB88BB9FBB8BBB914
:1002F000ABB9FBB914E3412E4BB80CE2302E3BB83E
:1003000004E20BB91CE11BB904E1502E5BB80CE010
:100310000BB904E0602E6BB86BB85BB81BB914E284
:100320001BB93BB84BB8FBB9ABB9BBB9FBB88BB980
:10033000EBB8DBB8CBB8BBB8ABB89BB88BB87BB865
:10034000EBB97BB96BB95BB94BB93BB92BB99BB96D
:1003500004EE0BB91CEE1BB904EF0BB92BB80BB9AB
:100360001FEF1BB91BB81BB91BB91BB81BB91BB9B5
:100370001BB81BB91BB91BB81BB91BB91BB81BB9E0
:100380001BB91BB81BB91BB91BB81BB91BB91BB8D0
:100390001BB91BB91BB81BB91BB91BB800EF0BB9B4
:1003A0001BB80BB91BB80BB91BB80BB91BB80BB9F1
:1003B0001BB80BB91BB80BB91BB80BB91BB80BB9E1
:1003C0001BB80BB91BB80BB91BB80BB91BB80BB9D1
:1003D0001BB80BB91BB80BB98BB91BB98BB91BB9BF
:1003E0008BB91BB98BB91BB98BB91BB98BB91BB9AD
:1003F0008BB91BB98BB91BB98BB91BB98BB91BB99D
:100400008BB91BB98BB91BB98BB91BB98BB91BB98C
:100410008BB91BB91BB81BB91BB91BB81BB91BB9CE
:100420001BB81BB91BB91BB81BB91BB91BB81BB92F
:100430001BB91BB81BB91BB91BB81BB91BB91BB81F
:100440001BB91BB91BB81BB91BB91BB80BB91BB81F
:100450000BB91BB80BB91BB80BB91BB80BB91BB840
:100460000BB91BB80BB91BB80BB91BB80BB91BB830
:100470000BB91BB80BB91BB80BB91BB80BB91BB820
:100480000BB91BB80BB98BB91BB98BB91BB98BB99D
:100490001BB98BB91BB98BB91BB98BB91BB98BB9FC
:1004A0001BB98BB91BB98BB91BB98BB91BB98BB9EC
:1004B0001BB98BB91BB98BB91BB98BB91BB98BB9DC
:1004C0001BB96BB85BB80CE10BB904E20BB93BB8D4
:1004D0004BB8FBB9ABB9BBB9FBB88BB9EBB8DBB860
:1004E000CBB8BBB8ABB89BB88BB87BB8EBB97BB912
:1004F0006BB95BB94BB93BB92BB99BB904EE0BB9DE
:100500000CEE0BB904EF0BB92BB80BB91BB92BB818
:100510000BB91CEE1BB904EE0BB99BB92BB93BB957
:100520004BB95BB96BB97BB9EBB97BB88BB89BB8EE
:10053000ABB8BBB8CBB8DBB8EBB88BB9FBB8BBB9C1
:10054000ABB9FBB94BB83BB814E21BB90CE10BB922
:100550005BB81CE01BB96BB81FE11BB902EE010FC1
:100560000BB91BB90BB91BB90BB91BB90BB91BB92B
:100570000BB91BB90BB91BB90BB91BB90BB9185F78
:10058000173059F72BB804EF0BB91CEE1BB904EE6A
:100590000BB99BB92BB93BB94BB95BB96BB97BB9FB
:1005A000EBB97BB88BB89BB8ABB8BBB8CBB8DBB8F2
:1005B000EBB88BB9FBB8BBB9ABB9FBB914E31BB94A
:1005C0000CE20BB90F2EF4E26F2EF02D6BB80F2E4C
:1005D000FCE15F2EF02D5BB80F2EF4E14F2EF02DD5
:1005E0004BB80F2EFCE03F2EF02D3BB8689433241F
:1005F00032F83BB83BB84BB85BB86BB80BB91BB91A
:10060000FBB9ABB9BBB9FBB88BB9EBB8DBB8CBB8AE
:10061000BBB8ABB89BB88BB87BB8EBB97BB96BB93F
:100620005BB94BB93BB92BB99BB914EE1BB90CEEB6
:100630000BB914EF1BB92BB81BB91FEF1BB9412C19
:10064000512C4BB808E0400E511C411411E05106EA
:10065000C1F72BB804EF0BB91CEE1BB904EE0BB9B4
:100660009BB92BB93BB94BB95BB96BB97BB9EBB94A
:100670007BB88BB89BB8ABB8BBB8CBB8DBB8EBB822
:100680008BB9FBB8BBB9ABB9FBB914E3412E4BB87E
:100690000CE2302E3BB814E21BB90CE10BB914E1AB
:1006A000512E5BB81CE01BB914E0612E6BB86BB81F
:1006B0005BB80BB904E20BB93BB84BB8FBB9ABB9AB
:1006C000BBB9FBB88BB9EBB8DBB8CBB8BBB8ABB830
:1006D0009BB88BB87BB8EBB97BB96BB95BB94BB93D
:1006E0003BB92BB99BB914EE1BB90CEE0BB914EF47
:1006F0001BB92BB81BB91FEF1BB91BB81BB91BB912
:100700001BB81BB91BB91BB81BB91BB91BB81BB94C
:100710001BB91BB81BB91BB91BB81BB91BB91BB83C
:100720001BB91BB91BB81BB91BB91BB81BB91BB92B
:100730001BB800EF0BB91BB80BB91BB80BB91BB832
:100740000BB91BB80BB91BB80BB91BB80BB91BB84D
:100750000BB91BB80BB91BB80BB91BB80BB91BB83D
:100760000BB91BB80BB91BB80BB91BB80BB98BB9BC
:100770001BB98BB91BB98BB91BB98BB91BB98BB919
:100780001BB98BB91BB98BB91BB98BB91BB98BB909
:100790001BB98BB91BB98BB91BB98BB91BB98BB9F9
:1007A0001BB98BB91BB98BB91BB91BB81BB91BB9CA
:1007B0001BB81BB91BB91BB81BB91BB91BB81BB99C
:1007C0001BB91BB81BB91BB91BB81BB91BB91BB88C
:1007D0001BB91BB91BB81BB91BB91BB81BB91BB97B
:1007E0001BB80BB91BB80BB91BB80BB91BB80BB9AD
:1007F0001BB80BB91BB80BB91BB80BB91BB80BB99D
:100800001BB80BB91BB80BB91BB80BB91BB80BB98C
:100810001BB80BB91BB80BB91BB80BB98BB91BB9FB
:100820008BB91BB98BB91BB98BB91BB98BB91BB968
:100830008BB91BB98BB91BB98BB91BB98BB91BB958
:100840008BB91BB98BB91BB98BB91BB98BB91BB948
:100850008BB91BB98BB91BB96BB85BB80CE10BB981
:1008600004E20BB93BB84BB8FBB9ABB9BBB9FBB8A9
:100870008BB9EBB8DBB8CBB8BBB8ABB89BB88BB80F
:100880007BB8EBB97BB96BB95BB94BB93BB92BB949
:100890009BB904EE0BB90CEE0BB904EF0BB92BB8F6
:1008A0000BB91BB92BB80BB91CEE1BB904EE0BB975
:1008B0009BB92BB93BB94BB95BB96BB97BB9EBB9F8
:1008C0007BB88BB89BB8ABB8BBB8CBB8DBB8EBB8D0
:1008D0008BB9FBB8BBB9ABB9FBB94BB83BB814E2A9
:1008E0001BB90CE10BB95BB81CE01BB96BB81FE17D
:1008F0001BB902EE010F0BB91BB90BB91BB90BB930
:100900001BB90BB91BB90BB91BB90BB91BB90BB987
:100910001BB90BB9185F173059F72BB804EF0BB997
:100920001CEE1BB904EE0BB99BB92BB93BB94BB903
:100930005BB96BB97BB9EBB97BB88BB89BB8ABB87B
:10094000BBB8CBB8DBB8EBB88BB9FBB8BBB9ABB9AC
:10095000FBB914E31BB90CE20BB90F2EF4E26F2EB6
:10096000F02D6BB80F2EFCE15F2EF02D5BB80F2E33
:10097000F4E14F2EF02D4BB80F2EFCE03F2EF02D62
:100980003BB86894332432F83BB83BB84BB85BB8FB
:100990006BB80BB91BB9FBB9ABB9BBB9FBB88BB919
:1009A000EBB8DBB8CBB8BBB8ABB89BB88BB87BB8EF
:1009B000EBB97BB96BB95BB94BB93BB92BB99BB9F7
:1009C00014EE1BB90CEE0BB914EF1BB92BB81BB905
:1009D0001FEF1BB9412C512C642C60946BB808E0BC
:1009E000400E511C411411E05106B1F704E00BB95F
:1009F00004E10BB91CE1612E6BB814E2512E5BB817
:100A00001CE2412E4BB814E3312E3BB8FBB9ABB915
:100A1000BBB9FBB88BB9EBB8DBB8CBB8BBB8ABB8DC
:100A20009BB88BB87BB8EBB97BB96BB95BB94BB9E9
:100A30003BB92BB99BB914EE1BB91CEE1BB914EFD3
:100A40001BB92BB81BB91FEF1BB92BB814EF1BB97F
:100A50001CEE1BB914EE1BB99BB92BB93BB94BB9B2
:100A60005BB96BB97BB9EBB97BB88BB89BB8ABB84A
:100A7000BBB8CBB8DBB8EBB88BB9FBB8BBB9ABB97B
:100A8000FBB93BB84BB85BB86BB80BB90CE00BB912
:100A900004E00BB918B818B818B809811A810150C8
:100AA00011091A830983012B09F0EECBA0E0B0E015
:100AB000AB2B09F4C8CB0E940000BDCBF894FFCF4C
:00000001FF
