:100000000C9434000C9446000C9446000C9446006A
:100010000C9446000C9446000C9446000C94460048
:100020000C9446000C9446000C9446000C94460038
:100030000C9446000C9446000C9446000C94460028
:100040000C9448000C9446000C9446000C94460016
:100050000C9446000C9446000C9446000C94460008
:100060000C9446000C94460011241FBECFEFD8E03C
:10007000DEBFCDBF21E0A0E0B1E001C01D92A930FC
:10008000B207E1F70E9492000C9479020C940000F0
:100090001F920F920FB60F9211242F933F938F93BD
:1000A0009F93AF93BF938091050190910601A0911A
:1000B0000701B09108013091040123E0230F2D378F
:1000C00020F40196A11DB11D05C026E8230F02965C
:1000D000A11DB11D20930401809305019093060199
:1000E000A0930701B0930801809100019091010154
:1000F000A0910201B09103010196A11DB11D809351
:10010000000190930101A0930201B0930301BF91FC
:10011000AF919F918F913F912F910F900FBE0F90B4
:100120001F901895789484B5826084BD84B58160F1
:1001300084BD85B5826085BD85B5816085BD8091B2
:100140006E00816080936E0010928100809181002A
:100150008260809381008091810081608093810022
:10016000809180008160809380008091B1008460E4
:100170008093B1008091B00081608093B000809145
:100180007A00846080937A0080917A008260809304
:100190007A0080917A00816080937A0080917A0061
:1001A000806880937A001092C1008FEF8AB98FE047
:1001B00087B914B818B888B9F89480E0C82E80E0E0
:1001C000D82EC0E8D3E210E90CE290EAF92E23E33E
:1001D000E22EAA24AA9488EA2CE390EB43E438EBBD
:1001E0006CE450ECE3E578ECACE5F0EDBCE6BB2E5E
:1001F000B0EE0F2EF3E77F2EF02D0F2EF3E68F2EAD
:10020000F02D0F2EF8ED9F2EF02DF894A8B81BB806
:100210001BB81BB8CBB9CBB91BB81BB8CBB9CBB982
:100220001BB81BB8CBB9CBB91BB81BB8CBB9CBB972
:10023000DBB9DBB91BB91BB9DBB9DBB91BB91BB91E
:10024000DBB9DBB91BB91BB9DBB9DBB91BB91BB90E
:100250000BB90BB9FBB8FBB80BB90BB9FBB8FBB8C2
:100260000BB90BB9FBB8FBB80BB90BB9FBB8FBB8B2
:10027000EBB8EBB88BB98BB9EBB8EBB88BB98BB9E2
:10028000EBB8EBB88BB98BB9EBB8EBB88BB98BB9D2
:100290002BB92BB99BB99BB92BB92BB99BB99BB97E
:1002A0002BB92BB99BB99BB92BB92BB99BB99BB96E
:1002B0004BB94BB93BB93BB94BB94BB93BB93BB95E
:1002C0004BB94BB93BB93BB94BB94BB93BB93BB94E
:1002D0006BB96BB95BB95BB96BB96BB95BB95BB93E
:1002E0006BB96BB95BB95BB96BB96BB95BB95BB92E
:1002F000EBB9EBB97BB97BB9EBB9EBB97BB97BB99E
:10030000EBB9EBB97BB97BB9EBB9EBB97BB97BB98D
:10031000ABB9ABB9FBB9FBB9ABB9ABB9FBB9FBB97D
:10032000ABB9ABB9FBB9FBB9ABB9ABB9FBB9FBB96D
:10033000BBB8BBB8BBB9BBB9BBB8BBB8BBB9BBB921
:10034000BBB8BBB8BBB9BBB9BBB8BBB8BBB9BBB911
:100350007BB87BB8ABB8ABB87BB87BB8ABB8ABB845
:100360007BB87BB8ABB8ABB87BB87BB8ABB8ABB835
:10037000BBB8BBB8BBB9BBB9BBB8BBB8BBB9BBB9E1
:10038000BBB8BBB8BBB9BBB9BBB8BBB8BBB9BBB9D1
:100390008BB88BB89BB89BB88BB88BB89BB89BB805
:1003A0008BB88BB89BB89BB88BB88BB89BB89BB8F5
:1003B000ABB9ABB9FBB9FBB9ABB9ABB9FBB9FBB9DD
:1003C000ABB9ABB9FBB9FBB9ABB9ABB9FBB9FBB9CD
:1003D000EBB9EBB97BB97BB9EBB9EBB97BB97BB9BD
:1003E000EBB9EBB97BB97BB9EBB9EBB97BB97BB9AD
:1003F0006BB96BB95BB95BB96BB96BB95BB95BB91D
:100400006BB96BB95BB95BB96BB96BB95BB95BB90C
:100410004BB94BB93BB93BB94BB94BB93BB93BB9FC
:100420004BB94BB93BB93BB94BB94BB93BB93BB9EC
:100430002BB92BB99BB99BB92BB92BB99BB99BB9DC
:100440002BB92BB99BB99BB92BB92BB99BB99BB9CC
:10045000EBB8EBB88BB98BB9EBB8EBB88BB98BB900
:10046000EBB8EBB88BB98BB9EBB8EBB88BB98BB9F0
:100470000BB90BB9FBB8FBB80BB90BB9FBB8FBB8A0
:100480000BB90BB9FBB8FBB80BB90BB9FBB8FBB890
:10049000DBB9DBB91BB91BB9DBB9DBB91BB91BB9BC
:1004A000DBB9DBB91BB91BB9DBB9DBB91BB91BB9AC
:1004B0001BB81BB8CBB9CBB91BB81BB8CBB9CBB9E0
:1004C0001BB81BB8CBB9CBB91BB81BB8CBB9CBB9D0
:1004D00018B8CBB918B818B818B818B818B818B8E8
:1004E00018B818B8C114D10409F48FCE0E940000C6
:0604F00070CEF894FFCF6E
:107E00001F92CDB7DEB7112484B714BE982F9D7092
:107E100009F0D7D085E08093810082E08093C00094
:107E200088E18093C10086E08093C20082E2809363
:107E3000C4008EE0B1D0259A26E080E39CEF31E0CB
:107E4000909385008093840036BBB09BFECF1D9A33
:107E5000A8952150A9F7812C912C93E0F92EEE24BE
:107E6000E39425E0D22E31E1C32E8AD0813479F417
:107E700087D0898397D08981823811F482E005C048
:107E8000813811F486E001C083E073D06FC0823482
:107E900011F484E103C0853419F485E08BD066C009
:107EA000853541F46DD0882E6BD0912C982A880CA2
:107EB000991C5BC0863521F484E07CD080E0E5CF5E
:107EC000843609F036C05CD05BD0B82E59D0A82ECD
:107ED00000E011E055D0F80181938F01BE12FACF76
:107EE00061D0F5E4AF1201C0FFCFF401F7BEE89511
:107EF00007B600FCFDCFB401A0E0B1E02C911296D2
:107F0000AD0141505109FA01808130E0382BFB016D
:107F10000901E7BEE89511246E5F7F4FBA12EECFDC
:107F2000F401D7BEE89507B600FCFDCFC7BEE895C3
:107F30001DC0843769F424D023D0B82E21D032D08C
:107F40008401F80185918F0114D0BA94D1F70EC045
:107F5000853739F427D08EE10CD085E90AD08FE03F
:107F600094CF813511F488E017D01CD080E101D086
:107F70007CCF9091C00095FFFCCF8093C600089500
:107F80008091C00087FFFCCF8091C00084FD01C0BC
:107F9000A8958091C6000895E0E6F0E098E190830E
:107FA00080830895EDDF803219F088E0F5DFFFCFA0
:107FB00084E1DFCFCF93C82FE3DFC150E9F7CF9142
:0E7FC000F1CF282E80E0E8DFE0E0FF270994F3
:027FFE00020679
:0400000300007E007B
:00000001FF
