:100000000C9434000C9446000C9446000C9446006A
:100010000C9446000C9446000C9446000C94460048
:100020000C9446000C9446000C9446000C94460038
:100030000C9446000C9446000C9446000C94460028
:100040000C946D000C9446000C9446000C944600F1
:100050000C9446000C9446000C9446000C94460008
:100060000C9446000C94460011241FBECFEFD8E03C
:10007000DEBFCDBF21E0A0E0B1E001C01D92A930FC
:10008000B207E1F70E94B7000C94DE030C94000065
:100090003FB7F8948091050190910601A091070166
:1000A000B091080126B5A89B05C02F3F19F0019615
:1000B000A11DB11D3FBFBA2FA92F982F8827820FEE
:1000C000911DA11DB11DBC01CD0142E0660F771F3E
:1000D000881F991F4A95D1F708951F920F920FB666
:1000E0000F9211242F933F938F939F93AF93BF93BE
:1000F0008091010190910201A0910301B09104014E
:100100003091000123E0230F2D3720F40196A11D2B
:10011000B11D05C026E8230F0296A11DB11D209335
:1001200000018093010190930201A0930301B09319
:1001300004018091050190910601A0910701B09101
:1001400008010196A11DB11D809305019093060140
:10015000A0930701B0930801BF91AF919F918F9138
:100160003F912F910F900FBE0F901F90189578948C
:1001700084B5826084BD84B5816084BD85B58260AC
:1001800085BD85B5816085BD80916E00816080935D
:100190006E001092810080918100826080938100C6
:1001A00080918100816080938100809180008160D6
:1001B000809380008091B10084608093B100809131
:1001C000B00081608093B00080917A008460809359
:1001D0007A0080917A00826080937A0080917A0020
:1001E000816080937A0080917A00806880937A00A1
:1001F0001092C1008FEF8AB98FE087B914B818B890
:1002000098E79BB988B90E9448006B017C010E9465
:100210004800DC01CB018C199D09AE09BF09883E5D
:100220009340A105B10598F380E0E82E80E0F82E18
:100230000FE0CFEFD0EF1CE580E090E008B908B9FF
:1002400008B91BB8CBB9CBB91BB8CBB9CBB91BB864
:10025000CBB9CBB91BB8CBB9CBB91BB8CBB9CBB9E0
:100260001BB8CBB9CBB91BB8CBB9CBB91BB8CBB981
:10027000CBB91BB8CBB9CBB91BB8CBB9CBB91BB871
:10028000CBB9CBB91BB8CBB9CBB91BB8CBB9CBB9B0
:100290001BB8CBB9CBB91BB8CBB9CBB91BB8CBB951
:1002A000CBB91BB8CBB9CBB91BB8CBB9CBB91BB841
:1002B000DBB91BB8DBB91BB8DBB91BB8DBB91BB8A2
:1002C000DBB91BB8DBB91BB8DBB91BB8DBB91BB892
:1002D000DBB91BB8DBB91BB8DBB91BB8DBB91BB882
:1002E000DBB91BB8DBB91BB8DBB91BB8DBB91BB872
:1002F000DBB91BB8DBB91BB8DBB91BB8DBB91BB862
:10030000DBB91BB8DBB91BB8DBB91BB8DBB91BB851
:10031000DBB91BB8DBB91BB8DBB91BB8DBB91BB841
:10032000DBB91BB8DBB91BB9CBB91BB9CBB91BB94E
:10033000CBB91BB9CBB91BB9CBB91BB9CBB91BB95D
:10034000CBB91BB9CBB91BB9CBB91BB9CBB91BB94D
:10035000CBB91BB9CBB91BB9CBB91BB9CBB91BB93D
:10036000CBB91BB9CBB91BB9CBB91BB9CBB91BB92D
:10037000CBB91BB9CBB91BB9CBB91BB9CBB91BB91D
:10038000CBB91BB9CBB91BB9CBB91BB9CBB91BB90D
:10039000CBB91BB9CBB91BB9CBB91BB9CBB91BB8FE
:1003A000CBB9CBB91BB8CBB9CBB91BB8CBB9CBB98F
:1003B0001BB8CBB9CBB91BB8CBB9CBB91BB8CBB930
:1003C000CBB91BB8CBB9CBB91BB8CBB9CBB91BB820
:1003D000CBB9CBB91BB8CBB9CBB91BB8CBB9CBB95F
:1003E0001BB8CBB9CBB91BB8CBB9CBB91BB8CBB900
:1003F000CBB91BB8CBB9CBB91BB8CBB9CBB91BB8F0
:10040000CBB9CBB91BB8CBB9CBB91BB8DBB91BB8CF
:10041000DBB91BB8DBB91BB8DBB91BB8DBB91BB840
:10042000DBB91BB8DBB91BB8DBB91BB8DBB91BB830
:10043000DBB91BB8DBB91BB8DBB91BB8DBB91BB820
:10044000DBB91BB8DBB91BB8DBB91BB8DBB91BB810
:10045000DBB91BB8DBB91BB8DBB91BB8DBB91BB800
:10046000DBB91BB8DBB91BB8DBB91BB8DBB91BB8F0
:10047000DBB91BB8DBB91BB8DBB91BB8DBB91BB8E0
:10048000DBB91BB9CBB91BB9CBB91BB9CBB91BB9FC
:10049000CBB91BB9CBB91BB9CBB91BB9CBB91BB9FC
:1004A000CBB91BB9CBB91BB9CBB91BB9CBB91BB9EC
:1004B000CBB91BB9CBB91BB9CBB91BB9CBB91BB9DC
:1004C000CBB91BB9CBB91BB9CBB91BB9CBB91BB9CC
:1004D000CBB91BB9CBB91BB9CBB91BB9CBB91BB9BC
:1004E000CBB91BB9CBB91BB9CBB91BB9CBB91BB9AC
:1004F000CBB91BB9CBB91BB9CBB91BB8CBB91BB89E
:10050000CBB91BB8CBB91BB8CBB91BB8CBB91BB88F
:10051000CBB91BB8CBB91BB8CBB91BB8CBB91BB87F
:10052000CBB91BB8CBB91BB8CBB91BB8CBB91BB86F
:10053000CBB91BB8CBB91BB8CBB91BB8CBB91BB85F
:10054000CBB91BB8DBB9CBB91BB8DBB9CBB91BB87E
:10055000CBB9DBB91BB8CBB9DBB91BB8DBB91BB85E
:10056000DBB9CBB91BB8DBB9CBB91BB8CBB9DBB99D
:100570001BB8CBB9DBB91BB8DBB91BB8DBB9CBB93E
:100580001BB8DBB9CBB91BB8CBB9DBB91BB8CBB93E
:10059000DBB91BB8DBB91BB8DBB9CBB91BB8DBB90E
:1005A000CBB91BB8CBB9DBB91BB8CBB9DBB91BB81E
:1005B000DBB91BB8DBB9CBB91BB8DBB9CBB91BB8FE
:1005C000CBB9DBB91BB8CBB9DBB91BB8DBB91BB8EE
:1005D000DBB9CBB91BB8DBB9CBB91BB8CBB9DBB92D
:1005E0001BB8CBB9DBB91BB8DBB91BB9CBB91BB98D
:1005F000CBB91BB9CBB91BB9CBB91BB9CBB91BB99B
:10060000CBB91BB9CBB91BB9CBB91BB9CBB91BB98A
:10061000CBB91BB9CBB91BB9CBB91BB9CBB91BB97A
:10062000CBB91BB9CBB91BB9CBB91BB9CBB91BB96A
:10063000CBB91BB9CBB91BB9CBB91BB9CBB91BB95A
:10064000CBB91BB9CBB91BB9CBB91BB9CBB91BB94A
:10065000CBB91BB9CBB91BB9CBB91BB9CBB91BB93A
:10066000CBB91BB8CBB91BB8CBB91BB8CBB91BB82E
:10067000CBB91BB8CBB91BB8CBB91BB8CBB91BB81E
:10068000CBB91BB8CBB91BB8CBB91BB8CBB91BB80E
:10069000CBB91BB8CBB91BB8CBB91BB8CBB91BB8FE
:1006A000CBB91BB8CBB91BB8CBB91BB8DBB91BB8DE
:1006B000DBB91BB8DBB91BB8DBB91BB8DBB91BB89E
:1006C000DBB91BB8DBB91BB8DBB91BB8DBB91BB88E
:1006D000DBB91BB8DBB91BB8DBB91BB8DBB91BB87E
:1006E000DBB91BB8DBB91BB8DBB91BB8DBB91BB86E
:1006F000DBB91BB8DBB91BB8DBB91BB8DBB91BB85E
:10070000DBB91BB8DBB91BB8DBB91BB8DBB91BB84D
:10071000DBB91BB8DBB91BB8DBB91BB8DBB91BB83D
:10072000DBB91BB9CBB91BB9CBB91BB9CBB91BB959
:10073000CBB91BB9CBB91BB9CBB91BB9CBB91BB959
:10074000CBB91BB9CBB91BB9CBB91BB9CBB91BB949
:10075000CBB91BB9CBB91BB9CBB91BB9CBB91BB939
:10076000CBB91BB9CBB91BB9CBB91BB9CBB91BB929
:10077000CBB91BB9CBB91BB9CBB91BB9CBB91BB919
:10078000CBB91BB9CBB91BB9CBB91BB9CBB91BB909
:10079000CBB91BB9CBB91BB9CBB98BB918B818B841
:1007A00018B80196811521E0920709F047CDE114B0
:1007B000F10409F441CD0E9400003ECDF894FFCF32
:00000001FF
