:100000000C9434000C9446000C9446000C9446006A
:100010000C9446000C9446000C9446000C94460048
:100020000C9446000C9446000C9446000C94460038
:100030000C9446000C9446000C9446000C94460028
:100040000C946D000C9446000C9446000C944600F1
:100050000C9446000C9446000C9446000C94460008
:100060000C9446000C94460011241FBECFEFD8E03C
:10007000DEBFCDBF21E0A0E0B1E001C01D92A930FC
:10008000B207E1F70E94B7000C94AB010C9400009A
:100090003FB7F8948091050190910601A091070166
:1000A000B091080126B5A89B05C02F3F19F0019615
:1000B000A11DB11D3FBFBA2FA92F982F8827820FEE
:1000C000911DA11DB11DBC01CD0142E0660F771F3E
:1000D000881F991F4A95D1F708951F920F920FB666
:1000E0000F9211242F933F938F939F93AF93BF93BE
:1000F0008091010190910201A0910301B09104014E
:100100003091000123E0230F2D3720F40196A11D2B
:10011000B11D05C026E8230F0296A11DB11D209335
:1001200000018093010190930201A0930301B09319
:1001300004018091050190910601A0910701B09101
:1001400008010196A11DB11D809305019093060140
:10015000A0930701B0930801BF91AF919F918F9138
:100160003F912F910F900FBE0F901F90189578948C
:1001700084B5826084BD84B5816084BD85B58260AC
:1001800085BD85B5816085BD80916E00816080935D
:100190006E001092810080918100826080938100C6
:1001A00080918100816080938100809180008160D6
:1001B000809380008091B10084608093B100809131
:1001C000B00081608093B00080917A008460809359
:1001D0007A0080917A00826080937A0080917A0020
:1001E000816080937A0080917A00806880937A00A1
:1001F0001092C1008FEF8AB98FE087B914B818B890
:1002000098E79BB988B90E9448006B017C010E9465
:100210004800DC01CB018C199D09AE09BF09883E5D
:100220009340A105B10598F3C0E0D0E01FE080E065
:1002300018B98BB990E8980F9BB98BB98BB99BB95A
:100240008BB99BB99BB98BB99BB98BB99BB98BB94E
:100250008BB99BB98BB99BB99BB98BB99BB98BB93E
:100260009BB98BB98BB99BB98BB99BB99BB98BB92E
:100270009BB924E0280F2BB994E8980F9BB92BB9B0
:100280002BB99BB92BB99BB99BB92BB99BB92BB98E
:100290009BB92BB92BB99BB92BB99BB99BB92BB97E
:1002A0009BB92BB99BB92BB92BB99BB92BB99BB96E
:1002B0009BB92BB99BB928E0280F2BB998E8980F68
:1002C0009BB92BB92BB99BB92BB99BB99BB92BB94E
:1002D0009BB92BB99BB92BB92BB99BB92BB99BB93E
:1002E0009BB92BB99BB92BB99BB92BB92BB99BB92E
:1002F0002BB99BB99BB92BB99BB99CE0980F9BB9C3
:100300002CE8280F2BB99BB99BB92BB99BB92BB9FA
:100310002BB99BB92BB99BB92BB99BB99BB92BB9FD
:100320009BB92BB92BB99BB92BB99BB92BB99BB9ED
:100330009BB92BB99BB92BB92BB99BB92BB99BB9DD
:1003400018B8805F803809F073CF209709F46FCF19
:0A0350000E9400006CCFF894FFCF6C
:107E00001F92CDB7DEB7112484B714BE982F9D7092
:107E100009F0D7D085E08093810082E08093C00094
:107E200088E18093C10086E08093C20082E2809363
:107E3000C4008EE0B1D0259A26E080E39CEF31E0CB
:107E4000909385008093840036BBB09BFECF1D9A33
:107E5000A8952150A9F7812C912C93E0F92EEE24BE
:107E6000E39425E0D22E31E1C32E8AD0813479F417
:107E700087D0898397D08981823811F482E005C048
:107E8000813811F486E001C083E073D06FC0823482
:107E900011F484E103C0853419F485E08BD066C009
:107EA000853541F46DD0882E6BD0912C982A880CA2
:107EB000991C5BC0863521F484E07CD080E0E5CF5E
:107EC000843609F036C05CD05BD0B82E59D0A82ECD
:107ED00000E011E055D0F80181938F01BE12FACF76
:107EE00061D0F5E4AF1201C0FFCFF401F7BEE89511
:107EF00007B600FCFDCFB401A0E0B1E02C911296D2
:107F0000AD0141505109FA01808130E0382BFB016D
:107F10000901E7BEE89511246E5F7F4FBA12EECFDC
:107F2000F401D7BEE89507B600FCFDCFC7BEE895C3
:107F30001DC0843769F424D023D0B82E21D032D08C
:107F40008401F80185918F0114D0BA94D1F70EC045
:107F5000853739F427D08EE10CD085E90AD08FE03F
:107F600094CF813511F488E017D01CD080E101D086
:107F70007CCF9091C00095FFFCCF8093C600089500
:107F80008091C00087FFFCCF8091C00084FD01C0BC
:107F9000A8958091C6000895E0E6F0E098E190830E
:107FA00080830895EDDF803219F088E0F5DFFFCFA0
:107FB00084E1DFCFCF93C82FE3DFC150E9F7CF9142
:0E7FC000F1CF282E80E0E8DFE0E0FF270994F3
:027FFE00020679
:0400000300007E007B
:00000001FF
