:100000000C9434000C9446000C9446000C9446006A
:100010000C9446000C9446000C9446000C94460048
:100020000C9446000C9446000C9446000C94460038
:100030000C9446000C9446000C9446000C94460028
:100040000C9448000C9446000C9446000C94460016
:100050000C9446000C9446000C9446000C94460008
:100060000C9446000C94460011241FBECFEFD8E03C
:10007000DEBFCDBF21E0A0E0B1E001C01D92A930FC
:10008000B207E1F70E9492000C9488020C940000E1
:100090001F920F920FB60F9211242F933F938F93BD
:1000A0009F93AF93BF938091050190910601A0911A
:1000B0000701B09108013091040123E0230F2D378F
:1000C00020F40196A11DB11D05C026E8230F02965C
:1000D000A11DB11D20930401809305019093060199
:1000E000A0930701B0930801809100019091010154
:1000F000A0910201B09103010196A11DB11D809351
:10010000000190930101A0930201B0930301BF91FC
:10011000AF919F918F913F912F910F900FBE0F90B4
:100120001F901895789484B5826084BD84B58160F1
:1001300084BD85B5826085BD85B5816085BD8091B2
:100140006E00816080936E0010928100809181002A
:100150008260809381008091810081608093810022
:10016000809180008160809380008091B1008460E4
:100170008093B1008091B00081608093B000809145
:100180007A00846080937A0080917A008260809304
:100190007A0080917A00816080937A0080917A0061
:1001A000806880937A001092C1008FEF8AB98FE047
:1001B00087B914B818B888B9F89480E0C82E80E0E0
:1001C000D82ECFEFD3E49CE4F92E23E5E22E03E70B
:1001D00010ECF3E2ACE2B3E38CE3B82E9CE523E64B
:1001E0003CE680E840E950EA68EA70EBE8EB0F2E65
:1001F000F8ECAF2EF02D0F2EF0ED9F2EF02D0F2EE0
:10020000F8ED8F2EF02D0F2EF0EE7F2EF02DF894BE
:10021000C8B91BB8FBB91BB8ABB91BB8BBB91BB885
:10022000BBB81BB8DBB91BB8FBB81BB8EBB81BB825
:100230009BB91BB82BB91BB83BB91BB80BB91BB882
:100240008BB91BB84BB91BB85BB91BB86BB91BB8E2
:100250007BB91BB8EBB91BB81BB91BB8ABB81BB843
:100260009BB81BB88BB81BB87BB81BB8CBB97BB895
:10027000CBB98BB8CBB99BB8CBB9ABB8CBB91BB9A1
:10028000CBB9EBB9CBB97BB9CBB96BB9CBB95BB94E
:10029000CBB94BB9CBB98BB9CBB90BB9CBB93BB94E
:1002A000CBB92BB9CBB99BB9CBB9EBB8CBB9FBB8B0
:1002B000CBB9DBB9CBB9BBB8CBB9BBB9CBB9ABB94F
:1002C000CBB9FBB9CBB91BB81BB8FBB9FBB91BB891
:1002D0001BB8ABB9ABB91BB81BB8BBB9BBB91BB822
:1002E0001BB8BBB8BBB81BB81BB8DBB9DBB91BB8B4
:1002F0001BB8FBB8FBB81BB81BB8EBB8EBB81BB806
:100300001BB89BB99BB91BB81BB82BB92BB91BB831
:100310001BB83BB93BB91BB81BB80BB90BB91BB821
:100320001BB88BB98BB91BB81BB84BB94BB91BB8F1
:100330001BB85BB95BB91BB81BB86BB96BB91BB801
:100340001BB87BB97BB91BB81BB8EBB9EBB91BB8B1
:100350001BB81BB91BB91BB81BB8ABB8ABB81BB8E3
:100360001BB89BB89BB81BB81BB88BB88BB81BB815
:100370001BB87BB87BB81BB81BB8CBB9CBB97BB863
:100380007BB8CBB9CBB98BB88BB8CBB9CBB99BB851
:100390009BB8CBB9CBB9ABB8ABB8CBB9CBB91BB960
:1003A0001BB9CBB9CBB9EBB9EBB9CBB9CBB97BB9ED
:1003B0007BB9CBB9CBB96BB96BB9CBB9CBB95BB99D
:1003C0005BB9CBB9CBB94BB94BB9CBB9CBB98BB9BD
:1003D0008BB9CBB9CBB90BB90BB9CBB9CBB93BB94D
:1003E0003BB9CBB9CBB92BB92BB9CBB9CBB99BB9ED
:1003F0009BB9CBB9CBB9EBB8EBB8CBB9CBB9FBB8A0
:10040000FBB8CBB9CBB9DBB9DBB9CBB9CBB9BBB88E
:10041000BBB8CBB9CBB9BBB9BBB9CBB9CBB9ABB90D
:10042000ABB9CBB9CBB9FBB9FBB9CBB9CBB9DBB95C
:10043000DBB91BB91BB9FBB8FBB81BB91BB9EBB8CF
:10044000EBB81BB91BB99BB99BB91BB91BB92BB92D
:100450002BB91BB91BB93BB93BB91BB91BB90BB9BC
:100460000BB91BB91BB90BB98BB91BB91BB94BB96C
:100470004BB91BB91BB95BB95BB91BB91BB96BB9DC
:100480006BB91BB91BB97BB97BB91BB91BB9EBB9EC
:10049000EBB9DBB9DBB97BB97BB9DBB9DBB96BB9DC
:1004A0006BB9DBB9DBB95BB95BB9DBB9DBB94BB9AC
:1004B0004BB9DBB9DBB98BB98BB9DBB9DBB90BB99C
:1004C0000BB9DBB9DBB93BB93BB9DBB9DBB92BB94C
:1004D0002BB9DBB9DBB99BB99BB9DBB9DBB9EBB89D
:1004E000EBB8DBB9DBB9FBB8FBB8DBB9DBB918B8E3
:1004F0008BB918B818B818B818B818B818B818B808
:1005000018B8C114D10409F482CE0E94000061CE53
:04051000F894FFCF8D
:00000001FF
